:020000040800F2
:1000000000000320DD020008E5020008E902000804
:10001000590300085D030008A50300080000000064
:10002000000000000000000000000000ED030008D8
:10003000F103000800000000F5030008CD4B0008A4
:10004000090400080904000809040008090400085C
:10005000090400080904000809040008090400084C
:10006000090400080904000809040008090400083C
:10007000090400080904000809040008090400082C
:10008000090400080904000809040008090400081C
:10009000090400080904000809040008090400080C
:1000A00009040008090400080904000809040008FC
:1000B00009040008090400080904000809040008EC
:1000C00009040008090400080904000809040008DC
:1000D00009040008F149000809040008090400089F
:1000E00009040008090400080904000809040008BC
:1000F00009040008090400080904000809040008AC
:10010000090400080904000809040008090400089B
:10011000090400080904000809040008090400088B
:10012000090400080904000809040008090400087B
:10013000090400080904000809040008090400086B
:10014000090400080904000809040008090400085B
:10015000090400080904000809040008090400084B
:10016000090400080904000809040008090400083B
:100170000904000809040008090400080000000040
:10018000090400080904000809040008090400081B
:10019000090400080904000809040008090400080B
:1001A00009040008090400080904000800B583B028
:1001B00004F046FA384B394A1360394A136039491A
:1001C0000CE00A684B6801F10C04886803E01168D0
:1001D0001960043304329842F9D82146324B9942CF
:1001E000EFD32E4B1A68314B9A4204D12C4B1A682C
:1001F0002F4B9A4200D0FEE7274B2E4A13602E4A1F
:1002000013602E4B0AE0194651F8082B5B6802E098
:100210000020106004329A42FAD30B46284A9342D7
:10022000F1D3244B1B6813B9234B1B6803B1FEE7C2
:1002300004F00AFA01A8694604F060F9214C224B47
:100240001C1BA410002504E01E4B53F825309847D2
:100250000135AC42F8DC1D4C1D4B1C1BA4100025C5
:1002600004E01A4B53F8253098470135AC42F8DCCE
:100270000198009904F03AFC0546164C164B1C1BDD
:10028000A41004E0013C134B53F824309847002C91
:10029000F8DC284604F004F9BABADECA00000020EF
:1002A000CC0000200C040008240400087856341206
:1002B00032547698D0000020FC030020240400086B
:1002C000340400083404000834040008340400082E
:1002D00034040008340400083404000808B5FFF7AB
:1002E00065FF00BFFEE700BF1EF0040F0CBFEFF379
:1002F0000880EFF309807146404A10472DE9F0412C
:1003000082B004468846124B5E6B9D6B9F6A1B6BE6
:1003100013F0020F0DD00E4BDB6A002B09DA4BF6FF
:10032000AB6104F00DFA20B14FF00042084BDA62E5
:100330000BE0084804F01EF9CDF80080204639464D
:1003400032462B4604F084F9FEE702B0BDE8F081A6
:1003500000ED00E06C6C0008FEE700BF1EF0040F2B
:100360000CBFEFF30880EFF309807146244A104771
:100370002DE9F04182B007468846084B5D6B9C6BC7
:100380009E6A074804F0F6F8CDF8008038463146FA
:100390002A46234604F05CF9FEE700BF00ED00E0CA
:1003A0007C6C00081EF0040F0CBFEFF30880EFF325
:1003B00009807146134A10472DE9F04182B0074683
:1003C0008846084B5D6B9C6B9E6A074804F0D2F828
:1003D000CDF80080384631462A46234604F038F9E5
:1003E000FEE700BF00ED00E0886C0008FEE700BFFC
:1003F000FEE700BFFEE700BF70470000FD020008F7
:0C04000071030008B9030008FEE700BF0C
:10040C007889000800000020D000002078890008BE
:10041C000000001000000010D0000020000400209C
:08042C000000001000000010A8
:10043400704700BF10B5044602F0B0FB064BA3FBA7
:100444000030800900F0B4F84FF0FF30214600225C
:1004540000F058F8002010BDD34D621008B50B4BC6
:100464001A6842F400721A601A6842F480621A60D0
:100474001A6842F480721A60032000F025F80F20F5
:10048400FFF7D8FFFFF7D4FF002008BD003C02406F
:10049400024A136801331360704700BFD400002080
:1004A400014B1868704700BFD400002010B582B01B
:1004B4000190FFF7F5FF0446FFF7F2FF001B019BD5
:1004C4009842F9D302B010BD10B50446C31E042BE4
:1004D40003D90A48A42104F03FF804F00700084AAD
:1004E400D36823F4E0631B041B0C43EA002040F0B0
:1004F400BF6040F40030D06010BD00BFA8680008A1
:1005040000ED00E070B504460E4615460F2A03D9E7
:100514001A48BC2104F020F80F2E03D91748BD2136
:1005240004F01AF8164BDB68C3F30223C3F1070285
:10053400042A28BF0422191D062901D9D81E00E067
:100544000020012303FA02F2013A324002FA00F1D8
:1005540083405A1E2A400A43002C06DA04F00F0492
:100564001201D2B2074B1A5570BD1201D2B204F176
:10057400604404F5614484F8002370BDA868000851
:1005840000ED00E014ED00E010B5041E03DA0648A7
:10059400D02103F0E1FF610904F01F040123A3400B
:1005A400024A42F8213010BDA868000800E100E0CA
:1005B4000138B0F1807F0AD2064B5860F021064A18
:1005C40082F823100020986007221A6070470120E7
:1005D400704700BF10E000E000ED00E0002800F0EC
:1005E400008110B5044603687F4A934231D0183223
:1005F40093422ED0183293422BD01832934228D0F3
:100604001832934225D01832934222D018329342A2
:100614001FD0183293421CD002F55672934218D060
:100624001832934215D01832934212D018329342A2
:100634000FD0183293420CD01832934209D018329A
:10064400934206D01832934203D06848BF2103F086
:1006540083FF6368C3B1B3F1007F15D0B3F1806F3A
:1006640012D0B3F1C06F0FD0B3F1006F0CD0B3F15F
:10067400206F09D0B3F1406F06D0B3F1606F03D09F
:100684005A48C02103F068FFA3683BB1402B05D052
:10069400802B03D05548C12103F05EFFE368B3F516
:1006A400007F04D01BB15148C22103F055FF2369D8
:1006B400B3F5806F04D01BB14C48C32103F04CFF49
:1006C40063694BB1B3F5006F06D0B3F5805F03D017
:1006D4004648C42103F040FFA3694BB1B3F5005F62
:1006E40006D0B3F5804F03D04048C52103F034FF52
:1006F400E36943B1B3F5807F05D0202B03D03B4899
:10070400C62103F029FF236A63B1B3F5803F09D002
:10071400B3F5003F06D0B3F5403F03D03348C721BB
:1007240003F01AFF636A2BB1042B03D02F48C821AE
:1007340003F012FF636A23B3A36A032B03D92B4884
:10074400CD2103F009FFE36A63B1B3F5000F09D0CB
:10075400B3F1807F06D0B3F1C07F03D02348CE210C
:1007640003F0FAFE236B63B1B3F5001F09D0B3F5B0
:10077400800F06D0B3F5C00F03D01C48CF2103F07F
:10078400EBFE022384F8353020680268184B1340CE
:100794006168A2681143E2681143226911436269E6
:1007A4001143A2691143E2691143226A0A431343C4
:1007B400626A042A03D1E16A226B0A431343036089
:1007C4002268536923F00703616A0B43042901D1AA
:1007D400A16A0B4353610020E064012384F835309F
:1007E40010BD0120704700BF10600240DC680008A3
:1007F4003F8010F00346002800F0088790F8352069
:10080400D2B2022A00F0048701680A6822F00102C9
:100814000A60016800220A6001684A6001688A600F
:100824000168CA6001680A61026821215161026895
:10083400AA498A4254D9A1F589618A424CD001F56A
:1008440080618A4246D0A1F568718A4240D001F5A0
:1008540080618A423AD0A1F589618A4233D001F598
:1008640080618A422CD0A1F568718A4225D001F5B5
:1008740080618A421ED0A1F589618A4217D001F5B0
:1008840080618A4210D0A1F568718A4209D001F5CD
:1008940080618A4202D14FF480211EE04FF08071C2
:1008A4001BE04FF4802118E04FF4802115E04FF451
:1008B400802112E04FF480710FE04FF480710CE05E
:1008C4004FF4807109E04FF4807106E0844904E03C
:1008D400834902E0824900E08149824AD1600EE105
:1008E40081498A4253D9A8398A424CD001F58061A2
:1008F4008A4246D0A1F568718A4240D001F58061F0
:100904008A423AD0A1F589618A4233D001F58061E7
:100914008A422CD0A1F568718A4225D001F5806104
:100924008A421ED0A1F589618A4217D001F58061FF
:100934008A4210D0A1F568718A4209D001F580611C
:100944008A4202D14FF480211EE04FF080711BE0F7
:100954004FF4802118E04FF4802115E04FF48021FA
:1009640012E04FF480710FE04FF480710CE04FF40B
:10097400807109E04FF4807106E0594904E0584958
:1009840002E0574900E05649564A9160B7E057499A
:100994008A4253D948398A424CD001F580618A424F
:1009A40046D0A1F568718A4240D001F580618A423F
:1009B4003AD0A1F589618A4233D001F580618A4237
:1009C4002CD0A1F568718A4225D001F580618A4254
:1009D4001ED0A1F589618A4217D001F580618A424F
:1009E40010D0A1F568718A4209D001F580618A426C
:1009F40002D14FF480211EE04FF080711BE04FF4D0
:100A0400802118E04FF4802115E04FF4802112E09A
:100A14004FF480710FE04FF480710CE04FF480715B
:100A240009E04FF4807106E02D4904E02C4902E00E
:100A34002B4900E02A492E4AD16060E02D498A42C0
:100A44005AD001F580618A4246D0A1F568718A4284
:100A540040D001F580618A423AD0A1F589618A4289
:100A640033D001F580618A422CD0A1F568718A42A5
:100A740025D001F580618A421ED0A1F589618A42A0
:100A840017D001F580618A4210D0A1F568718A42BD
:100A940009D001F580618A4202D14FF480212CE013
:100AA4004FF0807129E04FF4802126E04FF480213B
:100AB40023E04FF4802120E04FF480711DE04FF4D7
:100AC40080711AE04FF4807117E04FF4807114E0E4
:100AD400034912E0024910E001490EE05864024063
:100AE4000400800000640240B86002405860024084
:100AF4000060024010600240AC49AD4A91601A683F
:100B0400AC498A4254D9A1F589618A424CD001F595
:100B140080618A4246D0A1F568718A4240D001F5CD
:100B240080618A423AD0A1F589618A4233D001F5C5
:100B340080618A422CD0A1F568718A4225D001F5E2
:100B440080618A421ED0A1F589618A4217D001F5DD
:100B540080618A4210D0A1F568718A4209D001F5FA
:100B640080618A4202D14FF400111EE04FF000610F
:100B74001BE04FF4001118E04FF4001115E04FF49E
:100B8400001112E04FF400610FE04FF400610CE03B
:100B94004FF4006109E04FF4006106E0202104E015
:100BA400202102E0202100E02021834AD1600EE1CF
:100BB40082498A4253D9A8398A424CD001F58061CE
:100BC4008A4246D0A1F568718A4240D001F580611D
:100BD4008A423AD0A1F589618A4233D001F5806115
:100BE4008A422CD0A1F568718A4225D001F5806132
:100BF4008A421ED0A1F589618A4217D001F580612D
:100C04008A4210D0A1F568718A4209D001F5806149
:100C14008A4202D14FF400111EE04FF000611BE044
:100C24004FF4001118E04FF4001115E04FF40011D7
:100C340012E04FF400610FE04FF400610CE04FF458
:100C4400006109E04FF4006106E0202104E0202166
:100C540002E0202100E02021574A9160B7E0584982
:100C64008A4253D948398A424CD001F580618A427C
:100C740046D0A1F568718A4240D001F580618A426C
:100C84003AD0A1F589618A4233D001F580618A4264
:100C94002CD0A1F568718A4225D001F580618A4281
:100CA4001ED0A1F589618A4217D001F580618A427C
:100CB40010D0A1F568718A4209D001F580618A4299
:100CC40002D14FF400111EE04FF000611BE04FF41D
:100CD400001118E04FF4001115E04FF4001112E078
:100CE4004FF400610FE04FF400610CE04FF4006139
:100CF40009E04FF4006106E0202104E0202102E035
:100D0400202100E020212A4AD16060E02D498A4256
:100D14005AD001F580618A4246D0A1F568718A42B1
:100D240040D001F580618A423AD0A1F589618A42B6
:100D340033D001F580618A422CD0A1F568718A42D2
:100D440025D001F580618A421ED0A1F589618A42CD
:100D540017D001F580618A4210D0A1F568718A42EA
:100D640009D001F580618A4202D14FF400112CE0D0
:100D74004FF0006129E04FF4001126E04FF4001118
:100D840023E04FF4001120E04FF400611DE04FF424
:100D940000611AE04FF4006117E04FF4006114E0C1
:100DA400202112E0202110E020210EE00400800028
:100DB400006002405864024000640240B86002408F
:100DC40058600240106002402021AC4A91601A68C9
:100DD400AB498A4254D9A1F589618A424CD001F5C4
:100DE40080618A4246D0A1F568718A4240D001F5FB
:100DF40080618A423AD0A1F589618A4233D001F5F3
:100E040080618A422CD0A1F568718A4225D001F50F
:100E140080618A421ED0A1F589618A4217D001F50A
:100E240080618A4210D0A1F568718A4209D001F527
:100E340080618A4202D14FF400211EE04FF000711C
:100E44001BE04FF4002118E04FF4002115E04FF4AB
:100E5400002112E04FF400710FE04FF400710CE038
:100E64004FF4007109E04FF4007106E0082104E03A
:100E7400082102E0082100E00821824AD1600CE147
:100E840081498A4253D9A8398A424CD001F58061FC
:100E94008A4246D0A1F568718A4240D001F580614A
:100EA4008A423AD0A1F589618A4233D001F5806142
:100EB4008A422CD0A1F568718A4225D001F580615F
:100EC4008A421ED0A1F589618A4217D001F580615A
:100ED4008A4210D0A1F568718A4209D001F5806177
:100EE4008A4202D14FF400211EE04FF000711BE052
:100EF4004FF4002118E04FF4002115E04FF40021D5
:100F040012E04FF400710FE04FF400710CE04FF465
:100F1400007109E04FF4007106E0082104E00821A3
:100F240002E0082100E00821564A9160B5E05749E3
:100F34008A4253D948398A424CD001F580618A42A9
:100F440046D0A1F568718A4240D001F580618A4299
:100F54003AD0A1F589618A4233D001F580618A4291
:100F64002CD0A1F568718A4225D001F580618A42AE
:100F74001ED0A1F589618A4217D001F580618A42A9
:100F840010D0A1F568718A4209D001F580618A42C6
:100F940002D14FF400211EE04FF000711BE04FF42A
:100FA400002118E04FF4002115E04FF4002112E075
:100FB4004FF400710FE04FF400710CE04FF4007136
:100FC40009E04FF4007106E0082104E0082102E082
:100FD400082100E00821294AD1605EE02C498A42B8
:100FE40058D001F580618A4246D0A1F568718A42E1
:100FF40040D001F580618A423AD0A1F589618A42E4
:1010040033D001F580618A422CD0A1F568718A42FF
:1010140025D001F580618A421ED0A1F589618A42FA
:1010240017D001F580618A4210D0A1F568718A4217
:1010340009D001F580618A4202D14FF400212AE0EF
:101044004FF0007127E04FF4002124E04FF4002119
:1010540021E04FF400211EE04FF400711BE04FF437
:10106400007118E04FF4007115E04FF4007112E0C4
:10107400082110E008210EE008210CE00060024085
:101084005864024000640240B86002405860024064
:10109400106002400821A44A91601A68A3498A4258
:1010A40050D9A1F589618A4248D001F580618A420C
:1010B40042D0A1F568718A423CD001F580618A4230
:1010C40036D0A1F589618A4230D001F580618A4227
:1010D4002AD0A1F568718A4224D001F580618A4240
:1010E4001ED0A1F589618A4217D001F580618A4238
:1010F40010D0A1F568718A4209D001F580618A4255
:1011040002D14FF480311AE04FF4800117E04FF41C
:10111400803114E04FF4803111E04FF480310EE05F
:1011240040210CE040210AE0402108E0402106E093
:101134007F4904E07E4902E07D4900E07C497D4A24
:10114400D16002E17C498A424FD9A8398A4248D009
:1011540001F580618A4242D0A1F568718A423CD08F
:1011640001F580618A4236D0A1F589618A4230D086
:1011740001F580618A422AD0A1F568718A4224D09F
:1011840001F580618A421ED0A1F589618A4217D097
:1011940001F580618A4210D0A1F568718A4209D0B4
:1011A40001F580618A4202D14FF480311AE04FF494
:1011B400800117E04FF4803114E04FF4803111E0E6
:1011C4004FF480310EE040210CE040210AE0402140
:1011D40008E0402106E0564904E0554902E054493C
:1011E40000E05349534A9160AFE054498A424FD9D1
:1011F40048398A4248D001F580618A4242D0A1F53B
:1012040068718A423CD001F580618A4236D0A1F5EA
:1012140089618A4230D001F580618A422AD0A1F5E1
:1012240068718A4224D001F580618A421ED0A1F5FA
:1012340089618A4217D001F580618A4210D0A1F5F4
:1012440068718A4209D001F580618A4202D14FF463
:1012540080311AE04FF4800117E04FF4803114E03C
:101264004FF4803111E04FF480310EE040210CE066
:1012740040210AE0402108E0402106E02C4904E036
:101284002B4902E02A4900E02949274AD1605CE061
:101294002B498A4256D001F580618A4242D0A1F599
:1012A40068718A423CD001F580618A4236D0A1F54A
:1012B40089618A4230D001F580618A422AD0A1F541
:1012C40068718A4224D001F580618A421ED0A1F55A
:1012D40089618A4217D001F580618A4210D0A1F554
:1012E40068718A4209D001F580618A4202D14FF4C3
:1012F400803128E04FF4800125E04FF4803122E072
:101304004FF480311FE04FF480311CE040211AE09B
:10131400402118E0402116E0402114E0044912E085
:10132400034910E002490EE00060024058640240A4
:101334000100800000640240B8600240586002402E
:1013440010600240B349B44A91601A68B3498A42B2
:1013540054D9A1F589618A424CD001F580618A4251
:1013640046D0A1F568718A4240D001F580618A4275
:101374003AD0A1F589618A4233D001F580618A426D
:101384002CD0A1F568718A4225D001F580618A428A
:101394001ED0A1F589618A4217D001F580618A4285
:1013A40010D0A1F568718A4209D001F580618A42A2
:1013B40002D14FF480111EE04FF080611BE04FF426
:1013C400801118E04FF4801115E04FF4801112E001
:1013D4004FF480610FE04FF480610CE04FF48061C2
:1013E40009E04FF4806106E0102104E0102102E0DE
:1013F400102100E010218A4AD16000E189498A4223
:1014040053D9A8398A424CD001F580618A4246D02A
:10141400A1F568718A4240D001F580618A423AD0D0
:10142400A1F589618A4233D001F580618A422CD0CA
:10143400A1F568718A4225D001F580618A421ED0E7
:10144400A1F589618A4217D001F580618A4210D0E2
:10145400A1F568718A4209D001F580618A4202D1FE
:101464004FF480111EE04FF080611BE04FF48011B7
:1014740018E04FF4801115E04FF4801112E04FF49E
:1014840080610FE04FF480610CE04FF4806109E06B
:101494004FF4806106E0102104E0102102E01021E5
:1014A40000E010215E4A9160A9E05F498A4253D965
:1014B40048398A424CD001F580618A4246D0A1F570
:1014C40068718A4240D001F580618A423AD0A1F520
:1014D40089618A4233D001F580618A422CD0A1F51A
:1014E40068718A4225D001F580618A421ED0A1F537
:1014F40089618A4217D001F580618A4210D0A1F532
:1015040068718A4209D001F580618A4202D14FF4A0
:1015140080111EE04FF080611BE04FF4801118E051
:101524004FF4801115E04FF4801112E04FF4806104
:101534000FE04FF480610CE04FF4806109E04FF458
:10154400806106E0102104E0102102E0102100E097
:101554001021314AD16052E034498A424CD001F51D
:1015640080618A4246D0A1F568718A4240D001F573
:1015740080618A423AD0A1F589618A4233D001F56B
:1015840080618A422CD0A1F568718A4225D001F588
:1015940080618A421ED0A1F589618A4217D001F583
:1015A40080618A4210D0A1F568718A4209D001F5A0
:1015B40080618A4202D14FF480111EE04FF08061B5
:1015C4001BE04FF4801118E04FF4801115E04FF444
:1015D400801112E04FF480610FE04FF480610CE061
:1015E4004FF4806109E04FF4806106E0102104E0CB
:1015F400102102E0102100E01021074A9160002030
:10160400D86483F8350083F83400704701207047AC
:1016140001207047010080000060024058640240CD
:1016240000640240B860024058600240106002400A
:1016340030B40568029C44EA03436B640368DA63CC
:101644004368B3F5403F35D101F07F4201F47F0395
:1016540001F47F45C9B284681CB92B431343194371
:1016640025E0012C02D12B43194320E0022C07D1A1
:10167400DA0CAB0AD20242EA431343EAD10116E080
:10168400032C0AD1D40FDA0CEB0A920242EA431378
:1016940043EAC43343EAD10109E0140F1A0D2B0BBA
:1016A400120242EA031343EA043343EA11110368C2
:1016B400996301E00368D96030BC7047704700BF8C
:1016C40000284FD010B504460268274B9A4203D035
:1016D4002648C22102F040FF636863B1B3F5803F3E
:1016E40009D0B3F5003F06D0B3F5403F03D01F48FF
:1016F400C32102F031FFA368042B03D91B48C42182
:1017040002F02AFFE368B3F5804F03D31748C521DD
:1017140002F022FF94F8393013F0FF0F02D1204673
:10172400FFF7CCFF022384F839302268136823F4CE
:10173400403361680B4313602268536B23F0070343
:10174400A1680B4353632268136C23F47F5323F083
:101754003F03E1680B4313640020E063012384F832
:10176400393010BD0120704700B002400C690008F8
:101774002DE9F04182B0089E90F83840012C2CD01D
:101784001D46174688460446012380F83830022354
:1017940080F83930B6F5803F04D312484FF4BC7159
:1017A40002F0DAFEB5F5804F04D30E4840F2791109
:1017B40002F0D2FE2268136823F00103136000963E
:1017C400204641463A462B46FFF732FF226813680B
:1017D40043F001031360002000E0022002B0BDE8E2
:1017E400F08100BF0C69000870B504460D4603681B
:1017F4001B6813F0010F30D0FEF752FE064627E0B7
:1018040059685A6802F0010211F0200F00D15AB150
:1018140020229A60236801209860042384F83930D8
:10182400002384F8383070BDB5F1FF3F10D025B1E6
:10183400FEF736FE801BA8420AD9002384F838300C
:10184400E36B43F02003E363032084F8390070BDA5
:1018540023685A6812F0020FD2D02368DB6913F0B0
:10186400200F24D0FEF71CFE06461BE05A6812F037
:10187400080F06D008229A60042384F83930012026
:1018840070BDB5F1FF3F0DD025B1FEF709FE801BF9
:10189400A84207D9E36B43F02003E363032084F8F1
:1018A400390070BD23685A6812F0100FDED0236827
:1018B40002229A60236810229A60012384F8393046
:1018C400002084F8380070BD90F83830012B00F007
:1018D400B18070B50D460446012380F838300223E8
:1018E40080F83930994204D953484FF4567102F0C4
:1018F40033FE04EB05139B69B3F5804F04D34E48C4
:1019040040F2593102F028FE6368B3F5403F15D028
:1019140004EB0513DB690A2B04D947484FF45771CC
:1019240002F01AFE63684BB104EB05131B6A022B29
:1019340004D9414840F25F3102F00EFE002D39D146
:101944002068436A3D49194004EB0513DB69A3F1A0
:101954000902012A0BD8AA1C1201A618A25843EAAC
:101964000242736803F07F4313430B4309E0AA1C4C
:101974001201A618A25843EA0243726843EA0263BA
:101984000B43436221688B6923F47F5323F03F03A5
:1019940004EB0512906903438B61D269093A012A69
:1019A40041D804EB05156A6A22F07F42134322688A
:1019B400936238E02068C3692049194004EB051399
:1019C400DB69A3F10902012A0BD8AA1C1201A6188B
:1019D400A25843EA0242736803F07F4313430B4364
:1019E40009E0AA1C1201A618A25843EA024372682D
:1019F40043EA02630B43C36121680B6923F47F53F9
:101A040023F03F0304EB0512906903430B61D26991
:101A1400093A012A07D804EB05156A6A22F07F42C5
:101A2400134322681362012384F83930002084F8B8
:101A3400380070BD022070470C690008F0FFFC00FC
:101A44002DE9F84F80460F46AE4B98422BD003F554
:101A54008063984227D003F58063984223D003F52E
:101A6400806398421FD003F5806398421BD003F52E
:101A74008063984217D003F58063984213D003F52E
:101A8400806398420FD003F5806398420BD003F52E
:101A94008063984207D003F58063984203D09A4844
:101AA400C52102F059FD3B881BB99748C62102F0B5
:101AB40053FD7B68012B22D9112B20D0022B1ED081
:101AC400122B1CD0914A934219D002F580129342F2
:101AD40015D002F58012934211D0A2F5F812934268
:101AE4000DD002F58012934209D002F58012934280
:101AF40005D0032B03D08448C72102F02DFDBB6819
:101B0400022B03D98048C82102F026FD002437E1C6
:101B1400A1460125A5403B6803EA050AAA4540F011
:101B24002E817B68022B01D0122B58D13B69002BEC
:101B340045D0092B43D0002B41D0002B3FD0F3B329
:101B4400EBB3012B3BD03AD0022B38D037D036D070
:101B5400032B34D0042B32D031D030D0052B2ED0EF
:101B64002DD0092B2BD0062B29D0092B27D0072BBE
:101B740025D024D023D0082B21D020D01FD0092B4E
:101B84001DD01CD00A2B1AD019D00B2B17D00C2B1C
:101B940015D014D00D2B12D00F2B10D0052B0ED036
:101BA4000DD00CD0082B0AD009D00C2B07D0062B53
:101BB40005D00E2B03D05448D92102F0CDFCE60801
:101BC400083658F8261004F0070080000F238340DD
:101BD40021EA03023B698340134348F82630D8F8CE
:101BE40000304FEA440B032606FA0BF6F64306EAE6
:101BF40003027B6803F0030303FA0BF31343C8F8EF
:101C040000307B685A1E012A03D9112B01D0122BF4
:101C14001CD1FB68032B03D93B48EC2102F09CFC4C
:101C2400D8F8083006EA0302FB6803FA0BF31343FF
:101C3400C8F80830D8F8043023EA05037D68C5F3F2
:101C4400001505FA09F51D43C8F80450D8F80C30FE
:101C54003340BE6806FA0BF61E43C8F80C607B6876
:101C640013F0805F00F08B80294A536C43F4804367
:101C74005364A308991CA2F5803252F8211004F091
:101C8400030080000F22824021EA02011D4A904590
:101C940040D002F58062904531D002F580629045D3
:101CA4002BD002F58062904525D002F580629045E4
:101CB4001FD002F58062904519D002F580629045EC
:101CC40013D002F5806290450DD002F580629045F4
:101CD40007D002F58062904501D109221BE00A2257
:101CE40019E0082217E0072215E0062213E0052276
:101CF40011E004220FE003220DE002220BE0012296
:101D040009E000BF000002403C6900080000111017
:101D140000380240002282400A4302331B4941F842
:101D240023201B4B1A686FEA0A0303EA020178684E
:101D340010F4803F01D04AEA0201154A116052684A
:101D440003EA0201786810F4003F01D04AEA020174
:101D54000F4A5160926803EA0201786810F4801F08
:101D640001D04AEA02010A4A9160D26813407968B4
:101D740011F4001F01D04AEA0203054AD36001347A
:101D84000F2C7FF6C5AEBDE8F88F00BF00380140C8
:101D9400003C014070B5064615460C4621B9094879
:101DA4004FF4D67102F0D8FB012D04D9054840F256
:101DB400AD1102F0D1FB0DB1B46170BD2404B46166
:101DC40070BD00BF3C690008F0B54D680468E36865
:101DD400C3F30B431D44D2011444D4F8883003F4F4
:101DE4007043C4F88830046816190B68E468C4F3B7
:101DF4000B442344013343EA0543C6F88830CD68D5
:101E04000468E368C3F30A031D441444D4F88C3013
:101E140003F47043C4F88C30046816198B68E468C2
:101E2400C4F30A042344013343EA0543C6F88C305F
:101E340003681344D3F8944024F00704C3F894408F
:101E4400036813440C69C3F8944091F831E091F8A5
:101E540032308F6906681644D6F89C400025C6F8CF
:101E64009C500668164491F8304044EA0E2444EA33
:101E7400034343EA0763C6F89C3003681344D3F86A
:101E8400984024F0FF04C3F89840036813444C6955
:101E9400C3F8984003681344D3F8A04024F4E064E2
:101EA40024F00704C3F8A04003681344CE690C6A05
:101EB4003443C3F8A04003681344D3F8AC40C3F8D8
:101EC400AC50036813444C6AC3F8AC400B695BB173
:101ED400012B0BD0042B0BD0022B0BD0032B0BD0DC
:101EE400072B0BD102240AE0042408E0032406E0B3
:101EF400022404E0022402E0022400E00124036836
:101F04001344D3F8B05005F0E025C3F8B05003688B
:101F140013448D6A04FB05F4E51C45EA0444C3F844
:101F2400B04003681344D3F8B44024F4FF6424F0AD
:101F34000704C3F8B44003681344C96AC3F8B4106F
:101F440003681A44D2F8843043F00103C2F88430A1
:101F5400F0BD00BF704700BF002800F0E38038B533
:101F640004460268704B9A4203D070489F2102F0E5
:101F7400F3FA6369B3F5805F03D36C48A02102F0E0
:101F8400EBFAA369B3F5006F03D36848A12102F00B
:101F9400E3FAE369B3F5805F03D36448A22102F056
:101FA400DBFA236AB3F5006F03D36048A32102F080
:101FB400D3FAA36AB3F5006F03D35C48A42102F0FB
:101FC400CBFA636AB3F5805F03D35848A52102F0C6
:101FD400C3FA236BB3F5006F03D35448A62102F070
:101FE400BBFAE36AB3F5805F03D35048A72102F03C
:101FF400B3FA636833B1B3F1004F03D04B48A8215F
:1020040002F0AAFAA36833B1B3F1804F03D0474872
:10201400A92102F0A1FAE36833B1B3F1005F03D060
:102024004248AA2102F098FA236933B1B3F1805FE0
:1020340003D03E48AB2102F08FFA94F8A13013F09C
:10204400FF0F02D12046FFF785FF022384F8A13059
:102054002268936923F070439361216888696368F7
:10206400A2681343E2681A432369134303438B6151
:1020740021688A682E4B1A408A60656921688868DD
:10208400A26942EA054202438A602168CA681A408A
:10209400CA60E5692168C868226A42EA05420243C7
:1020A400CA6021680A691A400A61656A2168086978
:1020B400A26A42EA054202430A61226851690B405E
:1020C4005361E06A22685169236B43EA00430B437E
:1020D400536194F8353094F8362012042068C16AAC
:1020E40001F07F41C1622168C86A42EA032394F87F
:1020F400342013430343CB622268536B43F004033D
:1021040053632268536B43F0020353632268936959
:1021140043F0010393610020C4F8A400012384F870
:10212400A13038BD01207047006801406C69000887
:1021340000F800F090F8A030012B00F08A802DE91F
:10214400F04190460E460746012380F8A030022352
:1021540080F8A1309A4204D93F4840F2DB1102F0E2
:10216400FBF93369072B04D93B484FF4EE7102F0B5
:10217400F3F9F369B3F5806F07D0B3F5C06F04D0FA
:10218400354840F2DD1102F0E7F9336A052B06D039
:10219400072B04D030484FF4EF7102F0DDF93368B7
:1021A400B3F5805F04D32C4840F2DF1102F0D4F978
:1021B4007368B3F5803F04D327484FF4F07102F0FD
:1021C400CBF9B368B3F5805F04D3234840F2E1113F
:1021D40002F0C2F9F368B3F5803F04D31E484FF40C
:1021E400F17102F0B9F9B369FF2B04D91A4840F22E
:1021F400E31102F0B1F9B36AB3F5005F04D31648F2
:102204004FF4F27102F0A8F9F36AB3F5006F04D346
:10221400114840F2E51102F09FF9342404FB0874DC
:10222400383435460FCD0FC40FCD0FC40FCD0FC4B6
:102234002B682360384631464246FFF7C5FD3A68AD
:102244000123536287F8A130002087F8A000BDE87D
:10225400F0810220704700BF6C69000890F8A0303C
:10226400012B11D0012280F8A020022380F8A13094
:1022740006498B6943F480338B6180F8A1200023E5
:1022840080F8A0301846704702207047006801406B
:1022940010B5224A136C43F0805313644FF4803317
:1022A40093FAA3F3B3FA83F3DBB29B0003F1844301
:1022B40003F5602301221A60FEF7F2F8044605E0F4
:1022C400FEF7EEF8001BB0F57A7F23D8144B5B6859
:1022D40013F4803FF4D04FF4003393FAA3F3B3FA2A
:1022E40083F3DBB29B0003F1844303F560230122F3
:1022F4001A60FEF7D5F8044605E0FEF7D1F8001B96
:10230400B0F57A7F08D8064B5B6813F4003FF4D02D
:10231400002010BD032010BD032010BD0038024072
:102324000070004038B5044603680F2B04D9B34845
:1023340040F21B1102F010F9236813F0010F5FD073
:102344006368012B06D9052B04D0AC484FF4907177
:1023540002F002F9AA4B9B6803F00C03042B0AD089
:10236400A74B9B6803F00C03082B0DD1A44B5B68AF
:1023740013F4800F08D0A24B1B6813F4003F3FD026
:102384006368002B3CD1FCE100229E4B1A70FEF7DF
:1023940087F8054607E0FEF783F8401B41F28833CF
:1023A400984200F2F081964B1B6813F4003FF2D17F
:1023B4002279944B1A7063688BB1FEF771F8054665
:1023C40007E0FEF76DF8401B41F28833984200F2B3
:1023D400DC818B4B1B6813F4003FF2D010E0FEF756
:1023E4005FF8054607E0FEF75BF8401B41F28833CF
:1023F400984200F2CC81824B1B6813F4003FF2D167
:10240400236813F0020F6DD0E368012B04D97B48D5
:102414004FF4B07102F0A0F823691F2B04D9774858
:1024240040F2611102F098F8754B9B6813F00C0FA1
:102434000AD0734B9B6803F00C03082B1CD1704B20
:102444005B6813F4800F17D16D4B1B6813F0020FF8
:1024540003D0E368012B40F09C816948026822F0B4
:10246400F8012269F82393FAA3F3B3FA83F3DBB2F6
:102474009A400A43026035E0E3680BB30122624BE1
:102484001A60FEF70DF8054605E0FEF709F8401B53
:10249400642800F280815A4B1B6813F0020FF4D0B9
:1024A4005748036823F0F8012269F82393FAA3F349
:1024B400B3FA83F3DBB29A4041EA0203036011E00A
:1024C4000022514B1A60FDF7EBFF054605E0FDF7CE
:1024D400E7FF401B642800F26081494B1B6813F03E
:1024E400020FF4D1236813F0080F2ED06369012B77
:1024F40004D942484FF4D07102F02EF8636993B1C5
:102504000122424B1A60FDF7CBFF054605E0FDF7BB
:10251400C7FF401B642800F24281394B5B6F13F004
:10252400020FF4D011E00022384B1A60FDF7B8FF17
:10253400054605E0FDF7B4FF401B642800F2318135
:102544002F4B5B6F13F0020FF4D1236813F0040FC9
:102554006FD0A368012B06D9052B04D027484FF46C
:10256400E57101F0F9FF264A136C43F080531364BC
:10257400A2F5E432136843F480731360FDF790FF0F
:10258400054605E0FDF78CFF401B642800F20B8133
:102594001F4B1B6813F4807FF4D000221D4B1A706C
:1025A400FDF77EFF054607E0FDF77AFF401B41F289
:1025B4008833984200F2F980114B1B6F13F0020F1D
:1025C400F2D1227A134B1A70A368012B11D1FDF7B3
:1025D40067FF054607E0FDF763FF401B41F28833C0
:1025E400984200F2E480064B1B6F13F0020FF2D006
:1025F4001FE0FDF755FF054616E000BFAC69000873
:10260400003802400238024000004742800E474230
:102614000070004070380240FDF742FF401B41F259
:102624008833984200F2C580684B1B6F13F0020F89
:10263400F2D1A369022B04D9654840F20E2101F0BE
:102644008BFFA369002B00F0B680604A926802F009
:102654000C02082A00F0B180022B7FD1E3693BB160
:10266400B3F5800F04D05A4840F2172101F074FFEB
:10267400236A3F2B04D956484FF4067101F06CFFCE
:10268400636AC03BF02B04D9514840F2192101F090
:1026940063FFA36A022B0AD0042B08D0062B06D0B2
:1026A400082B04D04A4840F21A2101F055FFE36A8E
:1026B400043B0B2B04D9464840F21B2101F04CFF8C
:1026C4000022444B1A60FDF7EBFE054604E0FDF7DB
:1026D400E7FE401B642872D83C4B1B6813F0007F54
:1026E400F5D1216A626A47F6C07393FAA3F3B3FA89
:1026F40083F3DBB29A401143A36A5B08013B4FF4B6
:10270400403292FAA2F2B2FA82F2D2B293400B436E
:10271400E26943EA0201E36A4FF0706292FAA2F2BC
:10272400B2FA82F2D2B203FA02F241EA020343F0AD
:102734000053264A53600122264B1A60FDF7B0FE6F
:10274400044604E0FDF7ACFE001B642839D81F4B97
:102754001B6813F0007FF5D0002038BD00221D4B0C
:102764001A60FDF79DFE044604E0FDF799FE001B88
:10277400642828D8154B1B6813F0007FF5D100207E
:1027840038BD012038BD032038BD032038BD0320E7
:1027940038BD012038BD032038BD032038BD0320D7
:1027A40038BD032038BD032038BD032038BD0320C5
:1027B40038BD032038BD002038BD012038BD0320BA
:1027C40038BD032038BD032038BD00BF00380240A7
:1027D400AC6900086000474270B504460D460368C2
:1027E400013B0E2B04D9884840F27E2101F0B4FE4F
:1027F4000F2D04D9844840F27F2101F0ADFE834BB4
:102804001B6803F00F03AB4280F08B80EAB27F4B6E
:102814001A701B6803F00F03AB4240F05181236828
:1028240013F0020F1DD0A368A3B1802B12D0902BFC
:1028340010D0A02B0ED0B02B0CD0C02B0AD0D02B94
:1028440008D0E02B06D0F02B04D06F4840F295213D
:1028540001F082FE6E498B6823F0F002A3681343F3
:102864008B60236813F0010F00F0E8806368022B8B
:1028740004D965484FF4277101F06EFE6268012A9D
:1028840005D1634B1B6813F4003F0ED11AE1022AF1
:1028940005D15F4B1B6813F0007F06D114E15C4B3C
:1028A4001B6813F0020F00F0118159498B6823F063
:1028B400030313438B60FDF7F3FD05466368012BA7
:1028C4000FD107E0FDF7ECFD401B41F2883398423D
:1028D40000F2FE804E4B9B6803F00C03042BF1D1F5
:1028E400ACE0022B17D107E0FDF7DAFD401B41F203
:1028F4008833984200F2EE80454B9B6803F00C034A
:10290400082BF1D19AE0FDF7CBFD401B41F288334F
:10291400984200F2E1803E4B9B6813F00C0FF2D119
:102924008CE0236813F0020F1DD0A368A3B1802BA1
:1029340012D0902B10D0A02B0ED0B02B0CD0C02BCB
:102944000AD0D02B08D0E02B06D0F02B04D02E4890
:102954004FF4397101F000FE2D498B6823F0F00229
:10296400A36813438B60236813F0010F5ED0636880
:10297400022B04D9244840F2EB2101F0EDFD6268FA
:10298400012A05D1224B1B6813F4003F0ED1A5E0A8
:10299400022A05D11E4B1B6813F0007F06D19FE06D
:1029A4001B4B1B6813F0020F00F09C8018498B68C6
:1029B40023F0030313438B60FDF772FD064663683F
:1029C400012B0FD107E0FDF76BFD801B41F288332B
:1029D400984200F289800E4B9B6803F00C03042B91
:1029E400F1D123E0022B1CD106E0FDF759FD801B39
:1029F40041F28833984279D8054B9B6803F00C0365
:102A0400082BF2D112E000BFAC690008003C024080
:102A140000380240FDF744FD801B41F288339842A0
:102A240066D8354B9B6813F00C0FF3D1EAB2334BE5
:102A34001A701B6803F00F03AB425BD1236813F0D9
:102A4400040F19D0E36883B1B3F5805F0DD0B3F5FB
:102A5400A05F0AD0B3F5C05F07D0B3F5E05F04D040
:102A6400274840F23B3101F077FD23498B6823F47A
:102A7400E052E36813438B60236813F0080F1AD005
:102A8400236983B1B3F5805F0DD0B3F5A05F0AD09D
:102A9400B3F5C05F07D0B3F5E05F04D0184840F247
:102AA400423101F059FD144A936823F460432169CB
:102AB40043EAC10393600F20FDF7BCFC002070BD06
:102AC400012070BD012070BD012070BD012070BDCA
:102AD400032070BD032070BD032070BD012070BDB4
:102AE400012070BD012070BD032070BD032070BDA6
:102AF400032070BD012070BD00380240003C02403C
:102B0400AC690008224B9B6803F00C03042B3DD0F6
:102B1400082B01D01F4870471D4B586800F03F0038
:102B24005B6813F4800F10D01B4BB3FBF0F3184A0F
:102B3400506847F6C072104092FAA2F2B2FA82F2DA
:102B4400D2B2D04000FB03F30FE0124BB3FBF0F31F
:102B54000F4A506847F6C072104092FAA2F2B2FAD5
:102B640082F2D2B2D04000FB03F3094A506800F469
:102B740040304FF4403292FAA2F2B2FA82F2D2B268
:102B8400D04001304000B3FBF0F07047024870477A
:102B9400003802400024F40000127A0008B5FFF760
:102BA400B1FF094B9B6803F0F002F02393FAA3F3FF
:102BB400B3FA83F3DBB222FA03F3044AD35CD840BA
:102BC400034B186008BD00BF003802409C69000830
:102BD4001C00002008B5FFF7E1FF084B9B6803F4D5
:102BE400E0524FF4E05393FAA3F3B3FA83F3DBB266
:102BF40022FA03F3024AD35CD84008BD00380240ED
:102C04009C69000808B5FFF7C9FF084B9B6803F4EB
:102C140060424FF4604393FAA3F3B3FA83F3DBB255
:102C240022FA03F3024AD35CD84008BD00380240BC
:102C34009C69000838B504460368013B2E2B03D970
:102C4400BE48722101F088FC236813F0030F00F0E2
:102C540083806368C03BF02B03D9B8487D2101F021
:102C64007BFC0022B64B1A60FDF71AFC054605E012
:102C7400FDF716FC401B642800F28281B14B1B68EF
:102C840013F0006FF4D1236813F0010F1ED0A36872
:102C9400023B052B03D9A948932101F05DFC62682E
:102CA40047F6C07393FAA3F3B3FA83F3DBB202FAE1
:102CB40003F1A2684FF0E04393FAA3F3B3FA83F36A
:102CC400DBB29A400A439F4BC3F88420236813F075
:102CD400020F2FD0E368023B0D2B03D99748A021A4
:102CE40001F03AFCE369013B1F2B03D99348A1216E
:102CF40001F032FC9348D0F8843003F0E0434FF005
:102D0400E04292FAA2F2B2FA82F2D2B223FA02F1C9
:102D14006568E3681A0642EA851343EA0173C0F85A
:102D24008430D0F88C3023F01F02E369013B134355
:102D3400C0F88C300122824B1A60FDF7B1FB0546C6
:102D440005E0FDF7ADFB401B642800F21B817D4BC1
:102D54001B6813F0006FF4D0236813F00C0F00F01D
:102D64009A802369313BB3F5C07F03D37348C621EE
:102D740001F0F2FB0022744B1A60FDF791FB05464B
:102D840005E0FDF78DFB401B642800F2FD806D4BD0
:102D94001B6813F0005FF4D1236813F0040F30D0E4
:102DA4006369023B0D2B03D96448DB2101F0D4FB9A
:102DB400236A013B1F2B03D96048DC2101F0CCFBC3
:102DC4006049D1F8883003F0E0434FF0E04292FAD2
:102DD400A2F2B2FA82F2D2B223FA02F22069636951
:102DE4001B0643EA801343EA0273C1F88830D1F822
:102DF4008C3023F4F853226A013A43EA0223C1F8DF
:102E04008C30236813F0080F34D0A369023B052BE0
:102E140003D94A48EB2101F09FFB636A63B1B3F520
:102E2400803F09D0B3F5003F06D0B3F5403F03D04F
:102E34004248EC2101F090FB4249D1F8883003F07C
:102E440070634FF0706292FAA2F2B2FA82F2D2B2D6
:102E5400D34022691B0643EA8213A26943EA027340
:102E6400C1F88830D1F88C3023F44032636A1343BC
:102E7400C1F88C300122344B1A60FDF711FB054672
:102E840004E0FDF70DFB401B64287FD82D4B1B6825
:102E940013F0005FF5D0236813F0200F66D0294AA1
:102EA400136C43F080531364A2F5E432136843F4C3
:102EB40080731360FDF7F4FA054604E0FDF7F0FAB9
:102EC400401B642864D8214B1B6813F4807FF5D021
:102ED4001C4B1A6FA36A534013F4407F09D0194A5C
:102EE400136F23F440731A4901200860002008601E
:102EF4001367A36AB3F5807F0FD1FDF7D1FA0546B6
:102F040006E0FDF7CDFA401B41F28833984241D8E0
:102F14000C4B1B6F13F0020FF3D0A36A03F440723F
:102F2400B2F5407F16D107498A6822F4F81223F0DB
:102F3400704323F4407313438B6010E0DC69000892
:102F44006800474200380240700047420070004069
:102F5400400E4742114A936823F4F81393600F4AD2
:102F6400116FA36AC3F30B030B431367236813F0B6
:102F7400100F11D094F82C20094B1A60002038BD92
:102F8400032038BD032038BD032038BD032038BDDD
:102F9400032038BD032038BD002038BD003802406E
:102FA400E0114742704700BFD8B138B504460D461A
:102FB40090F82C3013F0FF0F01D1FFF7F3FF022339
:102FC40084F82C30214651F8040B01F093F8206862
:102FD4002946626801F044F9012384F82C3000206A
:102FE40038BD0120704700BF38B590F82C30DBB2F3
:102FF400022B14D00D460446022380F82C300068BE
:1030040001F0CCF92B68022B04D1052384F82C3071
:10301400002038BD012384F82C30002038BD022064
:1030240038BD00BF90F82C30DBB2022B0CD010B5A9
:103034000446022380F82C30006801F011FA0123C1
:1030440084F82C30002010BD022070472DE9F04197
:1030540006460C4690461D46FDF722FA0746B8F18F
:10306400000F2AD05BE0B5F1FF3F26D025B1FDF774
:1030740017FAC01BA84220D93268536823F0E00332
:1030840053603268136823F040031360B36AB3F5E6
:10309400005F09D13268136823F400531360326867
:1030A400136843F400531360012386F8513000235E
:1030B40086F850300320BDE8F08133689B682340D4
:1030C400A342D0D10020BDE8F081B5F1FF3F26D066
:1030D40025B1FDF7E5F9C01BA84220D93268536831
:1030E40023F0E00353603268136823F04003136055
:1030F400B36AB3F5005F09D13268136823F400534F
:1031040013603268136843F400531360012386F894
:103114005130002386F850300320BDE8F081336835
:103124009B682340A342D0D00020BDE8F08100BFBB
:10313400704700BF002800F0AC8010B50446436817
:1031440033B1B3F5827F03D05348B72101F004FAB9
:10315400A3684BB1B3F5806F06D0B3F5004F03D02D
:103164004D48B82101F0F8F9E368B3F5006F04D0D5
:103174001BB14948B92101F0EFF923692BB1022BA6
:1031840003D04548BA2101F0E7F96369012B03D95B
:103194004148BB2101F0E0F9A369B3F5007F07D0F2
:1031A40033B1B3F5802F03D03B48BC2101F0D4F9EF
:1031B400E3698BB1082B0FD0102B0DD0182B0BD03B
:1031C400202B09D0282B07D0302B05D0382B03D047
:1031D4003148BD2101F0C0F9236A2BB1802B03D003
:1031E4002D48BE2101F0B8F9636A2BB1102B03D02E
:1031F4002948BF2101F0B0F9A36A33B1B3F5005FE8
:1032040003D02548C02101F0A7F9E36A013B4FF63A
:10321400FE72934203D92048C12101F09DF994F82C
:10322400513013F0FF0F02D12046FFF781FF022334
:1032340084F851302268136823F040031360216836
:103244006268A3681A43E3681A4323691A436369EB
:103254001A43A36903F400731343E2691343226A14
:103264001343A26A1A430A602168638B03F00402C1
:10327400636A13434B602368E26A1A612268D36964
:1032840023F40063D36100206065012384F8513086
:1032940010BD0120704700BF106A0008704700BFCE
:1032A40078B110B504460268136823F04003136034
:1032B400FFF7F4FF0020606584F8510084F85000A3
:1032C40010BD0120704700BFF0B583B004461D4611
:1032D40090F85130DBB2012B40F0CE800F461646F9
:1032E400002900F0CB80002A00F0CA8083683BB13B
:1032F400B3F5004F04D067484FF4B97101F02CF9CD
:1033040094F85030012B00F0BD80012384F8503034
:10331400122384F85130002363652763A686E6866A
:10332400E364A364A387E387A36AB3F5005F09D1C9
:103334002268136823F4005313602268136843F46B
:1033440000531360A368B3F5004F04D122681368D7
:1033540043F48043136023681A6812F0400F03D1CA
:103364001A6842F040021A60E368002B2CD16368AB
:1033740013B1E38E012B1AD12268236B591C2163EC
:103384001B78D360E38E013BE38610E020460221E4
:1033940000222B46FFF75AFE002875D12268236BC2
:1033A400591C21631B78D360E38E013BE386E38ED3
:1033B400002BEBD1A36AB3F5005F33D12268136805
:1033C40043F4805313602DE0636813B1E38E012B43
:1033D4001CD12368226B1288DA60236B02332363C7
:1033E400E38E013BE38611E02046022100222B46B6
:1033F400FFF72CFE002849D12368226B1288DA607B
:10340400236B02332363E38E013BE386E38E002BBD
:10341400EAD1A36AB3F5005F04D12268136843F4C8
:10342400805313602046022100222B46FFF70EFE34
:1034340028B1636D43F010036365032327E020463E
:10344400802101222B46FFF701FE034628B1636D5C
:1034540043F010036365032319E0A2682AB92268C4
:10346400D168019192680192019A012284F8512055
:10347400002284F850200AE0022308E0012306E039
:10348400012304E0022302E0032300E0032318469F
:1034940003B0F0BD106A0008F0B583B004460E46D0
:1034A40017461D4690F85130DBB2012B02D0222B77
:1034B40040F08481002E00F08381002F00F082818F
:1034C400002D00F08181A36823B19E4840F2CD21F4
:1034D40001F042F894F85030012B00F07781012379
:1034E40084F8503094F85130DBB2012B02D13223EE
:1034F40084F8513000236365A763A587E5872663B5
:10350400A586E586A364E364A36AB3F5005F09D1E5
:103514002268136823F4005313602268136843F489
:103524000053136023681A6812F0400F03D11A681D
:1035340042F040021A60E368B3F5006F7DD163681E
:103544002BB1B3F5827F0CD1E38E012B09D1236813
:10355400226B1288DA60236B02332363E38E013B10
:10356400E386E38E002B4DD1A36AB3F5005F04D14B
:103574002268136843F4805313602046012100221B
:10358400089BFFF763FD002840F02281A36B2268AB
:10359400D2681A80A36B0233A363E38F013BE387F2
:1035A400BEE0204602210022089BFFF74FFD0028C1
:1035B40040F010812368226B1288DA60236B023397
:1035C4002363E38E013B9BB2E38643B9A36AB3F55D
:1035D400005F04D12268136843F4805313602046CB
:1035E40001210022089BFFF731FD002840F0F48000
:1035F400A36B2268D2681A80A36B0233A363E38FA0
:10360400013BE387E38E002BCBD16368002B40F0B2
:103614008780204601210022089BFFF717FD002820
:1036240040F0DC80A36B2268D2681A80A36B02335B
:10363400A363E38F013BE38772E063682BB1B3F5C7
:10364400827F0BD1E38E012B08D12268236B591C96
:1036540021631B78D360E38E013BE386E38E002B6A
:1036640048D1A36AB3F5005F04D12268136843F418
:1036740080531360204601210022089BFFF7E6FCDB
:10368400002840F0AD80A36B2268D2681A70E38FE3
:10369400013BE38744E0204602210022089BFFF718
:1036A400D5FC002840F09E802268236B591C2163BE
:1036B4001B78D360E38E013B9BB2E38643B9A36AD4
:1036C400B3F5005F04D12268136843F48053136098
:1036D400204601210022089BFFF7B8FC002840F097
:1036E4008380A36B5A1CA2632268D2681A70E38F8A
:1036F400013BE387E38E002BCDD1636883B9204679
:1037040001210022089BFFF7A1FC00286ED1A36BC6
:103714005A1CA2632268D2681A70E38F013BE387C4
:10372400A36AB3F5005F16D1204601210022089B4D
:10373400FFF78CFC40B1636D43F002036365032320
:1037440055E000BF106A00082368DB689BB2ADF83F
:103754000630BDF80630204680210122089BFFF781
:1037640075FC034628B1636D43F0100363650323BE
:103774003DE0012284F8512021688A6802F0100299
:10378400A06AB0F5005F15D1A2B1636D43F00203E6
:103794006365B0F5005F08D10B6823F400530B6038
:1037A4002268136843F400531360002384F85030F4
:1037B40001231CE0002284F8502018E0022316E0C4
:1037C400012314E0012312E0012310E002230EE0A0
:1037D40003230CE003230AE0032308E0032306E0A9
:1037E400032304E0032302E0032300E00323184639
:1037F40003B0F0BDF0B585B004461E4690F85130D4
:10380400DBB2012B40F0F4800F461546002900F08E
:10381400F180002A00F0F08090F85030012B00F085
:10382400ED80012380F85030222380F851300023AA
:103834004365A163A287E2878364C3648386C386E6
:103844008368B3F5004F04D10268136823F48043FE
:103854001360A36AB3F5005F09D12268136823F4E7
:10386400005313602268136843F4005313606368C1
:10387400B3F5827F0CD1A36853B984F85030009615
:10388400204639463A462B46FFF706FE0546BCE07D
:1038940023681A6812F0400F03D11A6842F04002FC
:1038A4001A60E36893B131E02046012100223346D7
:1038B400FFF7CCFB002840F0A380A36B5A1CA26343
:1038C4002268D2681A70E38F013BE387E38F012BF0
:1038D400EAD8A36AB3F5005F24D12268136843F4DD
:1038E400805313601EE02046012100223346FFF777
:1038F400ADFB002840F08680A36B2268D2681A8052
:10390400A36B0233A363E38F013BE387E38F012BB4
:10391400E9D8A36AB3F5005F04D12268136843F4BD
:10392400805313602046012100223346FFF78EFBAB
:103934000546002868D1E36833B9A36B5A1CA26317
:103944002268D2681A7006E0A36B2268D2681A80D3
:10395400A36B0233A363E38F013BE387A36AB3F54D
:10396400005F13D12046012100223346FFF76EFB8E
:1039740028B1636D43F002036365032545E02368C2
:10398400DB689BB2ADF80E30BDF80E306368B3F55A
:10399400827F0BD1A368B3F5004F02D0B3F5806FDB
:1039A40004D12268136823F040031360012384F8D0
:1039B40051302268936803F01003A16AB1F5005FE7
:1039C40012D18BB1636D43F002036365136823F472
:1039D400005313602268136843F4005313600023F8
:1039E40084F85030012510E0002384F850300CE0B6
:1039F40002250AE0012508E0012506E0022504E08D
:103A0400032502E0032500E00325284605B0F0BDA8
:103A140090F85100704700BF90F83930DBB2122B98
:103A240001D0322B2AD18368B3F5805F0FD1036AAA
:103A340002681B88C3F30803536003691BB9036A54
:103A44000233036209E0036A0133036205E002689A
:103A5400036A591C01621B785360C38C013B9BB2FF
:103A6400C3846BB90268D36823F08003D36002680F
:103A7400D36843F04003D3600020704702207047AE
:103A8400002070472DE9F04104464268944B9A4265
:103A940004D9944840F2447100F05EFDE3683BB100
:103AA400B3F5005F04D08F4840F2457100F054FD37
:103AB400236953B1B3F5806F07D0B3F5C06F04D059
:103AC400884840F2467100F047FD63694FF6F3728F
:103AD400134200D123B9834840F2477100F03CFD02
:103AE4002268136923F44053E1680B43136120688F
:103AF400C36823F4164323F00C03A168226911431D
:103B040062691143E2690A431343C360226853693B
:103B140023F44073A1690B435361E369B3F5004F88
:103B240070D1256803F1804303F510439D4203D00F
:103B340003F580639D4232D1FFF764F800EB800007
:103B440000EB800063685B00B0FBF3F3664FA7FBF8
:103B540003235B091E01FFF755F800EB800000EB1F
:103B6400800063685B00B0FBF3F8FFF74BF800EBF1
:103B7400800000EB800063685B00B0FBF3F3A7FBFD
:103B840003235B09642202FB13831B013233A7FB6B
:103B94000323C3F343133343AB60BDE8F081FFF762
:103BA40019F800EB800000EB800063685B00B0FB59
:103BB400F3F34D4FA7FB03235B091E01FFF70AF83C
:103BC40000EB800000EB800063685B00B0FBF3F85F
:103BD400FFF700F800EB800000EB800063685B00F7
:103BE400B0FBF3F3A7FB03235B09642202FB1383FB
:103BF4001B013233A7FB0323C3F343133343AB60EB
:103C0400BDE8F0812568394B9D4203D003F58063FC
:103C14009D4232D1FEF7F6FF00EB800000EB8000FE
:103C240063689B00B0FBF3F32F4FA7FB03235B09EF
:103C34001E01FEF7E7FF00EB800000EB80006368E5
:103C44009B00B0FBF3F8FEF7DDFF00EB800000EB18
:103C5400800063689B00B0FBF3F3A7FB03235B09BD
:103C6400642202FB13831B013233A7FB0323C3F338
:103C740043133343AB60BDE8F081FEF7ABFF00EBC9
:103C8400800000EB800063689B00B0FBF3F3164FE9
:103C9400A7FB03235B091E01FEF79CFF00EB8000DA
:103CA40000EB800063689B00B0FBF3F8FEF792FF23
:103CB40000EB800000EB800063689B00B0FBF3F333
:103CC400A7FB03235A09642303FB12831B0132332A
:103CD400A7FB0323C3F343133343AB60BDE8F08175
:103CE400A037A000406A00081F85EB510010014076
:103CF400002800F0898010B5044683691BB303686B
:103D0400424A93420FD0A2F54C4293420BD002F5A3
:103D14008062934207D002F54C42934203D03C4860
:103D2400FC2100F019FCA36993B3B3F5807F2FD075
:103D3400B3F5007F2CD0B3F5407F29D03448FD2162
:103D440000F00AFC24E00368304A934220D0A2F534
:103D54004C4293421CD002F58062934218D002F583
:103D64008062934214D002F58062934210D002F52F
:103D7400444293420CD0A2F51C42934208D002F56F
:103D84008062934204D0224840F2011100F0E4FB27
:103D9400A3683BB1B3F5805F04D01D4840F2031122
:103DA40000F0DAFBE3693BB1B3F5004F04D01848E7
:103DB4004FF4827100F0D0FB94F8393013F0FF0F08
:103DC40002D1204600F01AFE022384F8393022681A
:103DD400D36823F40053D3602046FFF753FE2268D0
:103DE400136923F4904313612268536923F02A036F
:103DF40053612268D36843F40053D3600020E06326
:103E0400012384F8393010BD0120704700100140AF
:103E1400406A000890F83930DBB2012B01D0222B24
:103E24002FD100292FD0002A2FD090F83830012B21
:103E34002DD0012380F8383001628284C2840023AB
:103E4400C36390F83930DBB2222B03D1322380F8DC
:103E5400393002E0122380F839300268D36843F421
:103E64008073D3600268536943F0010353610023F4
:103E740080F838300168CA6842F08002CA60184687
:103E840070470220704701207047012070470220CC
:103E9400704700BF90F83930DBB2012B01D0122BF0
:103EA4002FD100292FD0002A2FD090F83830012BA1
:103EB4002DD0012380F8383081628285C2850023A9
:103EC400C36390F83930DBB2122B03D1322380F86C
:103ED400393002E0222380F839300268D36843F491
:103EE4008073D3600268536943F001035361002374
:103EF40080F838300168CA6842F02002CA60184667
:103F0400704702207047012070470120704702204B
:103F1400704700BF08B50268D36823F04003D3603C
:103F240090F83930DBB2322B03D1222380F83930B8
:103F34000CE00268D36823F48073D3600268536989
:103F440023F001035361012380F8393000F02EFD82
:103F5400002008BD08B590F83930DBB2222B01D01F
:103F6400322B4CD18368B3F5805F13D1836A026925
:103F740042B902685268C2F308021A80836A0233A3
:103F8400836218E002685268D2B21A80836A0133ED
:103F9400836210E0036933B9836A5A1C826202683F
:103FA40052681A7007E0826A531C836203685B6874
:103FB40003F07F031370C38D013B9BB2C38503BB26
:103FC4000268D36823F02003D36090F83930DBB261
:103FD400322B03D1122380F839300CE00268D36805
:103FE40023F48073D3600268536923F0010353619F
:103FF400012380F8393000F0E5FC002008BD0220E0
:1040040008BD002008BD00BF10B584B00446036895
:104014001968DA6802F4807211F0010F09D042B114
:104024001A6800925A680092009AC26B42F0010228
:10403400C26319685A6902F0010211F0020F09D033
:1040440042B11A6801925A680192019AE26B42F0F5
:104054000402E26319685A6902F0010211F0040FC4
:1040640009D042B11A6802925A680292029AE26B2B
:1040740042F00202E26319685A6902F0010211F087
:10408400080F09D042B11A6803925A680392039A3E
:10409400E26B42F00802E2631A68DB6803F0200373
:1040A40012F0200F03D013B12046FFF753FF23680B
:1040B4001A68DB6803F0800312F0800F03D013B199
:1040C4002046FFF7A9FC23681A68DB6803F0400365
:1040D40012F0400F03D013B12046FFF71BFFE36B30
:1040E4002BB1012384F83930204600F077FC04B06A
:1040F40010BD00BF38B505460C46574B984204D056
:10410400564840F21C4100F027FA2368012B04D9D9
:10411400524840F21D4100F01FFA6368032B04D992
:104124004E4840F21E4100F017FAA36843B1042B35
:1041340006D0082B04D0494840F21F4100F00CFA85
:10414400E36843B1102B06D0202B04D043484FF42E
:10415400846100F001FA236933B1402B04D03F4855
:1041640040F2214100F0F8F96369802B0AD0B3F5DD
:10417400807F07D0B3F5C07F04D0384840F2224195
:1041840000F0EAF9A3693BB1B3F5007F04D03348EA
:1041940040F2234100F0E0F9E36953B1B3F5006F55
:1041A40007D0B3F5406F04D02C4840F2244100F00E
:1041B400D3F9236A3BB1B3F5805F04D0274840F2BA
:1041C400254100F0C9F9636A53B1B3F5005F07D024
:1041D400B3F5804F04D0214840F2264100F0BCF9E9
:1041E4002368012B18D02B6823F4FF4323F07F03AB
:1041F4006168A2681143E26811432269114362694C
:104204001143A2691143E2691143226A1143626AAC
:104214000A4313432B601DE02B6823F4FF4323F070
:104224007F03E169226A1143626A0A431A436B6895
:1042340023F4FF4323F07F036068A1680843E16827
:1042440008432169084361690843A16901430B4399
:104254002A606B60002038BD400100A0706A00082D
:10426400F8B506460C4615464A4B984204D04A48CF
:1042740040F26F4100F070F92368013B0F2B04D921
:1042840045484FF48E6100F067F96368013B0F2BDA
:1042940004D9414840F2714100F05EF9A368013B42
:1042A4000F2B04D93C4840F2724100F055F9E36801
:1042B400013B0F2B04D9384840F2734100F04CF90C
:1042C4002369013B0F2B04D9334840F2744100F0B9
:1042D40043F96369013B0F2B04D92F4840F2754120
:1042E40000F03AF9A369013B0F2B04D92A4840F2A4
:1042F400764100F031F9012D04D9274840F2774185
:1043040000F02AF9012D20D0B36803F0704E236821
:10431400013B6568013D43EA0517A068013847EA97
:104324000025E168013945EA01302269013A40EA91
:1043340002416369013B41EA0352A369013B42EA3A
:10434400036343EA0E03B36022E0F36803F07045AD
:104354002368013B6168013943EA0110A268013A0C
:1043640040EA02212369013B41EA0342A369013B7C
:1043740042EA03632B43B26802F07040E268013AF8
:1043840061690139090541EA02320243F360B2600E
:104394000020F8BD400100A0706A000870B582B02A
:1043A40005460C461646002301932B4B984204D035
:1043B4002A4840F2035100F0CFF82368062B04D9B1
:1043C400264840F2045100F0C7F86368102B08D067
:1043D400082B06D0182B04D0204840F2055100F0D9
:1043E400BBF8A368013B0F2B04D91C4840F20651CB
:1043F40000F0B2F8E368B3F5005F04D3174840F265
:10440400075100F0A9F8226863681343A268013ACF
:1044140043EA4213E26843EA42230193019B2B617E
:10442400FCF73EF80446AB6913F0200F0AD0B6F14E
:10443400FF3F09D056B1FCF733F8001BB04207D850
:10444400012006E0002004E0012002E0032000E057
:10445400032002B070BD00BF400100A0706A0008D4
:1044640038B504460D460B4B984204D00A484FF425
:10447400A66100F071F8B5F5005F04D3064840F278
:10448400315100F069F8616941EA45016161002038
:1044940038BD00BF400100A0706A0008FEE700BFFD
:1044A40008B5034800F07EF80120FFF7F7FF00BFCE
:1044B400A06A000808B50D4B1B6813B90C4A0B4BD6
:1044C4001A600A4B1A68C31C23F0030313440949F6
:1044D4008B4206D901F00AFA0C2303604FF0FF3037
:1044E40008BD02490B60104608BD00BFD80000207B
:1044F4000004002000FC022001230360014B0B6038
:10450400704700BF0400002008B501F0EFF95823FC
:1045140003604FF0FF3008BD08B501F0E7F95823F8
:1045240003604FF0FF3008BD08B501F0DFF95823F0
:104534000360002008BD00BF08B501F0D7F9582377
:1045440003604FF0FF3008BD08B501F0CFF95823E0
:1045540003604FF0FF3008BD08B503460A46034820
:10456400194600F005F8FFF79BFF00BFF46A000846
:104574000FB400B583B004AB53F8042B019308487F
:10458400802101F05BFA011E03DD054800F052F8BA
:104594000146084603B05DF804EB04B0704700BF61
:1045A400E000002010B5044601F016FA014620464A
:1045B40000F040F80248012100F03CF810BD00BFB3
:1045C400E86B0008F0B585B006460C46174B1B682F
:1045D40083B9174B0193042302930323039301AF7D
:1045E400012528463946ABBE0546B5F1FF3F13D039
:1045F4000E4B1D600D4B1B6801930296039401AE94
:10460400052528463146ABBE0546B5F1FF3F06D029
:10461400A54207D0601B07E04FF0FF3004E04FF0E5
:10462400FF3001E04FF0FF3005B0F0BD6001002025
:104634004C6B000808B5FFF7C5FF08BD08B500F0CE
:10464400B9F808BD08B500F0D5F808BDF8B50446BA
:104654000D4617461E462648FFF78AFF254821685F
:10466400FFF786FF24486168FFF782FF2348A168AB
:10467400FFF77EFF2248E168FFF77AFF21482169AE
:10468400FFF776FF20486169FFF772FF1F48A169B1
:10469400FFF76EFF1E48E169FFF76AFF1D48FFF749
:1046A40067FF1D482946FFF763FF1C4CE16A1C485D
:1046B400FFF75EFF216B1B48FFF75AFFE16B1A48B7
:1046C400FFF756FF15F0800F03D018483946FFF75F
:1046D4004FFF15F4004F03D015483146FFF748FF4C
:1046E4001448FFF745FF14480699FFF741FFF8BD4A
:1046F400506B0008606B0008706B0008806B00084A
:10470400906B0008A06B0008B06B0008C06B000839
:10471400D06B0008E06B0008EC6B000800ED00E0D3
:10472400FC6B00080C6C00081C6C00082C6C000866
:104734003C6C00084C6C0008546C000870B585692A
:104744002B888B422FD1044603684668013B042B17
:104754002BD8DFE803F0032A24241B003068144913
:1047640001F030F970B9736813B90123236016E0BE
:10477400042B02D10223236011E0082B02D103236E
:1047840023600CE04FF0FF33236008E03368023B02
:10479400012B02D80023036001E0B3680360AB1C63
:1047A400A361012070BD002070BD002070BD00BF5A
:1047B4004C6B00080C4B1A6842F001021A6000218D
:1047C40099601A6822F0847222F480321A60074ACF
:1047D4005A601A6822F480221A60D9604FF000628D
:1047E400034B9A60704700BF003802401030002429
:1047F40000ED00E0234B9B6803F00C03042B07D06F
:10480400082B09D0002B2DD11F4A204B1A602CE015
:104814001F4A1E4B1A6028E01A4B5A685B6803F063
:104824003F0312F4800F09D0194AB2FBF3F2154B7F
:104834005B68C3F3881303FB02F208E0124AB2FB7D
:10484400F3F3104A5168C1F3881101FB03F20D4BD5
:104854005B68C3F3014301335B00B2FBF3F30B4A20
:10486400136002E0084A094B1A60064B9B68C3F3C5
:104874000313084AD25CD2B204490B68D3400B60DC
:10488400704700BF003802400024F4001C000020E0
:1048940000127A000C00002030B587B00C4A136B6C
:1048A40043F0400313634FF4C04301930124029483
:1048B400022304930394074D284601A9FDF7C0F889
:1048C40028464FF480412246FDF764FA07B030BD14
:1048D400003802400018024008B50138012804D805
:1048E40008461146FFF7A6FE08BD00F0FFFF582357
:1048F40003604FF0FF3008BD08B52148214B036029
:104904004FF41653436000238360C36003618361E3
:104914000C224261C361FFF7EBF910B11A4801F0B0
:1049240049F8174819490222FFF774FA30B11848B8
:1049340001F040F802E0174801F03CF8164B1B78F0
:10494400DBB2012BF7D10022134B1A700C48134928
:104954000222FFF79FFA30B1114801F02BF802E070
:10496400104801F027F80C4B1B78DBB2012BF7D170
:104974000D4801F01FF8094801F01CF808BD00BFFC
:10498400B403002000100140986C000820000020AF
:10499400AC6C0008C06C000864010020F403002023
:1049A400E06C0008F46C00080C6D000808B50122E6
:1049B400024B1A70024800F0FDFF08BD640100209C
:1049C400206D000808B50122024B1A70024800F05D
:1049D400F1FF08BD640100203C6D000808B50248E1
:1049E40000F0E8FF08BD00BF586D000808B5024894
:1049F400FFF70AFB08BD00BFB403002070B586B002
:104A0400164B1A6B42F001021A631A6B42F0010250
:104A14001A635A6C42F010025A644FF40073019303
:104A240002230293002403940493072605960C4D55
:104A3400284601A9FDF704F84FF480630193059615
:104A4400284601A9FCF7FCFF252021460122FBF79B
:104A540059FD2520FBF798FD06B070BD00380240D3
:104A64000000024000B593B01D4A136C43F080531C
:104A74001364A2F5E432136843F440431360012342
:104A840001930293022307934FF4800208920822B1
:104A940009924FF4B4720A920B9307230C9301A862
:104AA400FDF740FC10B10F4800F084FFFDF7F0FB68
:104AB4000F230D9302230E9300230F934FF4A0535F
:104AC40010934FF4805311930DA80521FDF784FE34
:104AD40010B1044800F06EFF13B05DF804FB00BF92
:104AE40000380240706D000810B52B48FFF75AFDDE
:104AF4002A4800F05FFFFBF7B1FCFFF7B3FF284C37
:104B040028482168FFF734FD2368274AA2FB0323C2
:104B14009B09013BB3F1807F09D2244A5360F02101
:104B2400234B83F823100023936007231360FFF7BC
:104B3400B3FEFFF7E1FE00F02BFC1E48FFF732FD49
:104B440000204FF0504100F091FB0020012100F0C3
:104B5400D7FB002000F0CEFB174C204600F072FC7F
:104B64001648FFF71FFD00F08BFC204600F0F4FB15
:104B74004FF0FF3000F0E4FB0320114900F08CFDFE
:104B840000244FF47A70FBF791FC01340D48214660
:104B9400FFF7EEFCF5E700BF7C6D0008906D0008A0
:104BA4001C000020AC6D0008D34D621010E000E042
:104BB40000ED00E0C06D00080000FFFFD46D0008A8
:104BC400E06D0008F06D000808B5FBF761FC08BD56
:104BD40000B587B00C4B5A6C42F480125A641A6BBD
:104BE40042F020021A634FF460730193022302938C
:104BF40003930123049305230593044801A9FCF7B7
:104C04001FFF07B05DF804FB0038024000140240A7
:104C140010B51048FEF7FCFED0B90E4C0E4B2360C5
:104C24001823E3610023A36063612361A362072265
:104C3400E262E36023624FF40072A26163624FF4A4
:104C4400827363602046FFF7C3FF2046FEF772FAC3
:104C540010BD00BF680100200050014008B50348A2
:104C6400FEF71EFBFFF7D4FF08BD00BF680100205C
:104C740000B583B002A921F8020D06480122064BB3
:104C84001B68FEF721FB08B1FFF7E8FF03B05DF8EE
:104C940004FB00BF680100202400002000B583B09D
:104CA4000246064801A9064B1B68FEF7A3FD08B19E
:104CB400FFF7D4FF019803B05DF804FB68010020FE
:104CC40024000020244B1B78002B44D12DE9F04113
:104CD40086B00125204B1D70204C236B43F0080344
:104CE40023634FF400530193029500260396022791
:104CF4000497DFF87080404601A9FCF7A1FE236BFE
:104D040043F0080323634FF4805301930295039601
:104D14000497404601A9FCF793FE236B43F0040378
:104D24002363042401940295039604970C4F384698
:104D34000DEB0401FCF784FE384621463246FDF7AC
:104D440029F8384621462A46FDF724F8FFF760FF84
:104D540006B0BDE8F0817047C00100200038024071
:104D640000080240000C024038B505460A484FF4DA
:104D740000510122FDF70EF8084C204604210022C0
:104D8400FDF708F82846FFF773FF204604210122A7
:104D9400FDF700F838BD00BF000C024000080240D7
:104DA40038B505460A484FF400510022FCF7F2FFDB
:104DB400084C204604210022FCF7ECFF2846FFF7AC
:104DC40057FF204604210122FCF7E4FF38BD00BF51
:104DD400000C024000080240F8B507460E46104C8D
:104DE400204604210022FCF7D5FF0E4D28464FF43F
:104DF40000510022FCF7CEFF3846FFF739FF30465A
:104E0400FFF74CFF064628464FF400510122FCF7F9
:104E1400C1FF204604210122FCF7BCFF3046F8BD47
:104E240000080240000C024008B5FBF73FFB08BD38
:104E3400F02070474FF4A070704700BF30B587B0C2
:104E4400314B5A6C42F080625A641A6B42F400028D
:104E54001A631A6B42F001021A631A6B42F00202DF
:104E64001A631A6B42F004021A631A6B42F00802C6
:104E74001A631A6B42F020021A631A6B42F0400262
:104E84001A6341F65803019302230293002203920A
:104E940004930E2305931D4801A9FCF7D1FD4FF49B
:104EA400706301931A4D284601A9FCF7C9FD4FF41C
:104EB40098630193174801A9FCF7C2FD48230193A5
:104EC400154801A9FCF7BCFD4FF480630193134816
:104ED40001A9FCF7B5FD4FF40C630193104C204677
:104EE40001A9FCF7ADFD032301930923059328468B
:104EF40001A9FCF7A5FD4FF4A0530193204601A995
:104F0400FCF79EFD07B030BD0038024000000240AF
:104F14000004024000080240000C02400014024059
:104F240000180240F0B583B004460E4615461F46ED
:104F34000F484FF44033436000238360089BC360F1
:104F44000C4B0360FCF7BCFB80B909482146FCF715
:104F5400BBFC58B900970648099932462B46FCF722
:104F640007FC18B902480A21FCF73EFC03B0F0BD67
:104F74001002002000B0024008B5FFF711FF08BD81
:104F840008B52920FFF7F8FF08BD00BF08B52820A1
:104F9400FFF7F2FF08BD00BF08B5FFF7E5FE08BD47
:104FA40008B5FFF78FFECA20FFF7E6FFC320FFF71F
:104FB400F3FF0820FFF7F0FF5020FFF7EDFFCF20AD
:104FC400FFF7DAFF0020FFF7E7FFC120FFF7E4FF58
:104FD4003020FFF7E1FFED20FFF7CEFF6420FFF75D
:104FE400DBFF0320FFF7D8FF1220FFF7D5FF812056
:104FF400FFF7D2FFE820FFF7BFFF8520FFF7CCFFC4
:105004000020FFF7C9FF7820FFF7C6FFCB20FFF78A
:10501400B3FF3920FFF7C0FF2C20FFF7BDFF0020AE
:10502400FFF7BAFF3420FFF7B7FF0220FFF7B4FF02
:10503400F720FFF7A1FF2020FFF7AEFFEA20FFF7DC
:105044009BFF0020FFF7A8FF0020FFF7A5FFB1207A
:10505400FFF792FF0020FFF79FFF1B20FFF79CFF45
:10506400B620FFF789FF0A20FFF796FFA220FFF77B
:1050740093FFC020FFF780FF1020FFF78DFFC120B2
:10508400FFF77AFF1020FFF787FFC520FFF774FFB3
:105094004520FFF781FF1520FFF77EFFC720FFF7AC
:1050A4006BFF9020FFF778FF3620FFF765FFC820DD
:1050B400FFF772FFF220FFF75FFF0020FFF76CFF9E
:1050C400B020FFF759FFC220FFF766FFB620FFF7B5
:1050D40053FF0A20FFF760FFA720FFF75DFF27209B
:1050E400FFF75AFF0420FFF757FF2A20FFF744FF7A
:1050F4000020FFF751FF0020FFF74EFF0020FFF7CD
:105104004BFFEF20FFF748FF2B20FFF735FF002070
:10511400FFF742FF0020FFF73FFF0120FFF73CFFAE
:105124003F20FFF739FFF620FFF726FF0120FFF7A6
:1051340033FF0020FFF730FF0620FFF72DFF2C2060
:10514400FFF71AFFC820FFF76FFE2620FFF714FFB2
:105154000120FFF721FFE020FFF70EFF0F20FFF7EC
:105164001BFF2920FFF718FF2420FFF715FF0C2051
:10517400FFF712FF0E20FFF70FFF0920FFF70CFFC8
:105184004E20FFF709FF7820FFF706FF3C20FFF7CA
:1051940003FF0920FFF700FF1320FFF7FDFE0520A2
:1051A400FFF7FAFE1720FFF7F7FE1120FFF7F4FED2
:1051B4000020FFF7F1FEE120FFF7DEFE0020FFF7FD
:1051C400EBFE1620FFF7E8FE1B20FFF7E5FE0420A8
:1051D400FFF7E2FE1120FFF7DFFE0720FFF7DCFEFA
:1051E4003120FFF7D9FE3320FFF7D6FE4220FFF728
:1051F400D3FE0520FFF7D0FE0C20FFF7CDFE0A20DA
:10520400FFF7CAFE2820FFF7C7FE2F20FFF7C4FED2
:105214000F20FFF7C1FE1120FFF7AEFEC820FFF7F5
:1052240003FE2920FFF7A8FE2C20FFF7A5FE08BDEA
:1052340008B5FFF7D1FD08BD08B5FFF743FDD3203E
:105244000321FFF7F5FF80B208BD00BF08B5024B8C
:105254001B689B6A984708BDF803002008B5024BF9
:105264001B68DB6A984708BDF803002070B58EB050
:1052740004460E4600250195FFF7E8FF02900395CA
:10528400FFF7ECFF049005950A96FF230693079514
:105294008DF834508DF835508DF836504FF4C06386
:1052A400089307230993FFF7D1FF0B90FFF7D6FF6D
:1052B4000C900D4D284601A92246FCF73BFF0B4AF2
:1052C40061000B199B0013444FF0FF3058600848ED
:1052D40098600C44A4004FF07F4313512846FCF718
:1052E400BDFF0EB070BD00BF50020020F8010020C9
:1052F40028000020014B1860704700BFC401002043
:1053040001290AD10D4B1B6803EBC010D0F884307F
:1053140043F00103C0F8843009E0084B1B6803EB39
:10532400C010D0F8843023F00103C0F88430034B5C
:105334001A68536A43F00103536270475002002015
:10534400034B1B6803EB43039B00024AD050704796
:10535400C4010020F8010020044B1B6803EB430345
:105364009B00034A13445860704700BFC4010020E7
:10537400F8010020044B1B6803EB43039B00034A22
:1053840013449860704700BFC4010020F801002056
:1053940038B51F4C1F4B2360092363610123A361AC
:1053A4001D23E3610323236240F20D13636240F281
:1053B4004313A36240F21713E36240F247132363DB
:1053C400002584F8365084F8345084F83550124857
:1053D40008230360C0230361042383614FF4003373
:1053E4004362FDF727FC6560A560E5602561FFF772
:1053F40025FD2046FCF7B0FD084B094A13601B68E5
:10540400984700F03FFA0748FFF7B4FF284638BD35
:105414005002002000680140C80100203000002034
:10542400F803002028000020044B1B6803EB43030F
:105434009B00034A13449868704700BFC4010020CE
:10544400F8010020F0B583B007460B4B1C683423E9
:105454000A4A03FB0423DE6DFFF7F8FE0546FFF757
:10546400FDFE0346002200920197204631462A465B
:10547400FFF758FD03B0F0BDC40100205002002026
:1054840008B5034B1B689B6803B1984708BD00BF70
:10549400F8030020F8B507460C461646064B1A6872
:1054A4003421064B01FB0233DD6DFFF7CFFE00FB19
:1054B400047045F82060F8BDC401002050020020AB
:1054C4002DE9F04F83B081460E460092324B1B68A3
:1054D40003EB43039B00314A13449B68DA8801922F
:1054E4009D8805F1070B4FEAEB0BC5EBCB085FFA80
:1054F40088F84FF0000A48E00AFB0BF3009A1A44BC
:10550400BBF1010F03D0BBF1020F03D008E0009AF6
:10551400D75C0DE00099CF5C537843EA072707E096
:105524000099CF5C53781B0243EA074397781F43E3
:10553400002424E02B1B4344013B012202FA03F321
:105544003B420DD009EB0400134B1B6803EB4303F0
:105554009B0080B23146114AD258FFF79BFF0DE001
:1055640009EB04000C4B1B6803EB43039B000B4A41
:10557400134480B231465A68FFF78CFF0134A542C8
:10558400D8D80136B6B20AF1010A019B5345B3D803
:1055940003B0BDE8F08F00BFC4010020F801002073
:1055A40038B50A4B1B6803EB43039B00084C2344A8
:1055B4009C682568203AE38803FB02F2A38807333A
:1055C400DB1003FB0252FFF77BFF38BDC401002050
:1055D400F80100202DE9F04106460F46154698468D
:1055E4001346002401E0013413465A1C1B78002B97
:1055F400F9D1FFF72BFE264B1B6803EB43039B00FB
:10560400244A13449B689B88B0FBF3F0B8F1010F64
:1056140003D0B8F1020F07D00AE0001B00FB03F02F
:1056240006EB5006B6B203E0041B13FB0466B6B2E5
:10563400002412E03046394615F8012BFFF7B0FF7D
:10564400134B1B6803EB43039B00124A13449B68F0
:105654009B881E44B6B20134A4B295F80080FFF7CB
:10566400F5FD0B4B1B6803EB43039B00094A1344F2
:105674009B689A8802FB140080B218F1000318BFDB
:105684000123904238BF0023002BD3D1BDE8F08121
:10569400C4010020F801002038B504460D46FFF788
:1056A400C3FEC18811FB04F1002089B22A460323FA
:1056B400FFF790FF38BD00BF30B587B03F4B9A6B02
:1056C40042F001029A631A6B42F480021A631A6B65
:1056D40042F002021A631A6B42F004021A631A6B54
:1056E40042F008021A631A6B42F010021A631A6B32
:1056F40042F020021A631A6B42F040021A6302233A
:1057040002930493002503950C23059306AC6023B0
:1057140044F8143D2A482146FCF792F901230193E9
:1057240028482146FCF78CF94CF203730193264870
:105734002146FCF785F94FF68373019323482146EC
:10574400FCF77EF94FF63F03019321482146FCF70D
:1057540077F948F2331301931E482146FCF770F998
:105764001D4C65608023A3604FF40073E3604FF425
:10577400806323614FF4805363614FF48043A361DA
:10578400E5614FF40033236265620323A362E5629B
:105794002563124B2360124B1C63A3632046FBF763
:1057A40029F82046FAF71AFF382029462A46FAF73C
:1057B400A9FE3820FAF7E8FE07B030BD00380240F1
:1057C4000004024000080240000C024000100240A5
:1057D4000014024000180240080300201064024034
:1057E400740300202DE9F04782B082464FF0000890
:1057F400CDF80480214C0126266008276760A66046
:10580400C4F80C801E4D284621464FF6FF72FDF762
:10581400EBFB3046FAF74AFE022323606760A6607A
:10582400C4F80C80284621464FF6FF72FDF7DCFBD6
:105834000323236067604FF00409C4F80890C4F898
:105844000C80284621464FF6FF72FDF7CDFB4FF43E
:105854000C730193C4F800906760A660019BE36039
:10586400284621464FF6FF72FDF7BEFB28465146F7
:10587400FDF7D8FB02B0BDE8F08700BFF8020020B6
:105884007403002038B5164C164B2360164D0223C2
:105894002B60072169600422AA60E9602B616B61B7
:1058A400AB61012363600023A360E26010222261E4
:1058B400402262614FF4C072A261E3614FF400625E
:1058C400226263624FF40053A362FFF7F5FE2046A1
:1058D4002946FDF769FB40F26A50FFF783FF38BDA4
:1058E40074030020400100A058030020014B1868F5
:1058F400704700BFC800002070B50E46054618B1B9
:1059040083690BB900F058FAAC68A389190701D56B
:10591400236983B92846214600F0F4F858B14FF0C2
:10592400FF3070BD002B0EDB236816F8012C1A70B3
:10593400236801332360A36816F8012B013BA3609D
:10594400002AEFD116E0A269934209DB236816F816
:10595400012C1A70236819780A29EAD1284602E032
:1059640016F8011C2846224600F078F8421C5042E2
:105974005041D3E7002B15DAA269934208DB236870
:105984000A221A702368197891420FD1284601E03F
:1059940028460A21224600F061F8431C5842584127
:1059A40030B1BCE723680A221A70236801332360EC
:1059B4000A2070BD024B01461868FFF79DBF00BF67
:1059C400C800002010F8012B11F8013B012A28BF60
:1059D4009A42F7D0D01A7047034613F8012B002AD5
:1059E400FBD1181A0138704730B5141E9BB0054618
:1059F40004DA8B2303604FF0FF301CE04FF4027293
:105A0400ADF80C2014BF04F1FF3222460292059235
:105A14004FF6FF7200910491ADF80E2069461A46C4
:105A24001E9B00F09BFB431CBCBF8B232B6014B15B
:105A3400009B00221A701BB030BD000073B50093A8
:105A4400054B06460D461446186831462A46234639
:105A5400FFF7CAFF02B070BDC800002070B50D4644
:105A64001446064618B183690BB900F0A5F9224B18
:105A74009C4201D1746808E0204B9C4201D1B46877
:105A840003E01F4B9C4208BFF468A369A360A38989
:105A94001A0709D523693BB123682069181A636979
:105AA4009842EDB20FDB08E03046214600F02AF8B8
:105AB4000028F1D04FF0FF3070BD3046214600F091
:105AC40011F90028F6D1A368013BA36023685A1C8E
