:020000040800F2
:1000000000000320DD020008E5020008E902000804
:10001000590300085D030008A50300080000000064
:10002000000000000000000000000000ED030008D8
:10003000F103000800000000F503000881400008FB
:10004000090400080904000809040008090400085C
:10005000090400080904000809040008090400084C
:10006000090400080904000809040008090400083C
:10007000090400080904000809040008090400082C
:10008000090400080904000809040008090400081C
:10009000090400080904000809040008090400080C
:1000A00009040008090400080904000809040008FC
:1000B00009040008090400080904000809040008EC
:1000C00009040008090400080904000809040008DC
:1000D00009040008090400080904000809040008CC
:1000E00009040008090400080904000809040008BC
:1000F00009040008090400080904000809040008AC
:10010000090400080904000809040008090400089B
:10011000090400080904000809040008090400088B
:10012000090400080904000809040008090400087B
:10013000090400080904000809040008090400086B
:10014000090400080904000809040008090400085B
:10015000090400080904000809040008090400084B
:10016000090400080904000809040008090400083B
:100170000904000809040008090400080000000040
:10018000090400080904000809040008090400081B
:10019000090400080904000809040008090400080B
:1001A00009040008090400080904000800B583B028
:1001B00003F066FE384B394A1360394A13603949F7
:1001C0000CE00A684B6801F10C04886803E01168D0
:1001D0001960043304329842F9D82146324B9942CF
:1001E000EFD32E4B1A68314B9A4204D12C4B1A682C
:1001F0002F4B9A4200D0FEE7274B2E4A13602E4A1F
:1002000013602E4B0AE0194651F8082B5B6802E098
:100210000020106004329A42FAD30B46284A9342D7
:10022000F1D3244B1B6813B9234B1B6803B1FEE7C2
:1002300003F060FF01A8694603F080FD214C224BCA
:100240001C1BA410002504E01E4B53F825309847D2
:100250000135AC42F8DC1D4C1D4B1C1BA4100025C5
:1002600004E01A4B53F8253098470135AC42F8DCCE
:100270000198009903F08CFF0546164C164B1C1B89
:10028000A41004E0013C134B53F824309847002C91
:10029000F8DC284603F024FDBABADECA00000020CC
:1002A000B80000200C04000824040008785634121A
:1002B00032547698BC000020A403002024040008D7
:1002C000340400083404000834040008340400082E
:1002D00034040008340400083404000808B5FFF7AB
:1002E00065FF00BFFEE700BF1EF0040F0CBFEFF379
:1002F0000880EFF309807146404A10472DE9F0412C
:1003000082B004468846124B5E6B9D6B9F6A1B6BE6
:1003100013F0020F0DD00E4BDB6A002B09DA4BF6FF
:10032000AB6103F029FE20B14FF00042084BDA62C6
:100330000BE0084803F03EFDCDF80080204639462A
:1003400032462B4603F0A0FDFEE702B0BDE8F08187
:1003500000ED00E090630008FEE700BF1EF0040F10
:100360000CBFEFF30880EFF309807146244A104771
:100370002DE9F04182B007468846084B5D6B9C6BC7
:100380009E6A074803F016FDCDF8008038463146D6
:100390002A46234603F078FDFEE700BF00ED00E0AB
:1003A000A06300081EF0040F0CBFEFF30880EFF30A
:1003B00009807146134A10472DE9F04182B0074683
:1003C0008846084B5D6B9C6B9E6A074803F0F2FC05
:1003D000CDF80080384631462A46234603F054FDC6
:1003E000FEE700BF00ED00E0AC630008FEE700BFE1
:1003F000FEE700BFFEE700BF70470000FD020008F7
:0C04000071030008B9030008FEE700BF0C
:10040C00E07F000800000020BC000020E07F000816
:10041C000000001000000010BC000020A803002009
:08042C000000001000000010A8
:10043400704700BF10B5044602F06EFB064BA3FBE9
:100444000030800900F0BCF84FF0FF302146002254
:1004540000F060F8002010BDD34D621008B50B4BBE
:100464001A6842F400721A601A6842F480621A60D0
:100474001A6842F480721A60032000F02DF80F20ED
:10048400FFF7D8FFFFF7D4FF002008BD003C02406F
:10049400024A136801331360704700BFC000002094
:1004A400014B1868704700BFC000002010B582B02F
:1004B4000190FFF7F5FF0446FFF7F2FF001B019BD5
:1004C4009842F9D302B010BD024A136823F0020324
:1004D4001360704710E000E010B50446C31E042BFF
:1004E40003D90A48A42103F057FC04F00700084A82
:1004F400D36823F4E0631B041B0C43EA002040F0A0
:10050400BF6040F40030D06010BD00BFFC5F000845
:1005140000ED00E070B504460E4615460F2A03D9D7
:100524001A48BC2103F038FC0F2E03D91748BD210B
:1005340003F032FC164BDB68C3F30223C3F107025A
:10054400042A28BF0422191D062901D9D81E00E057
:100554000020012303FA02F2013A324002FA00F1C8
:1005640083405A1E2A400A43002C06DA04F00F0482
:100574001201D2B2074B1A5570BD1201D2B204F166
:10058400604404F5614484F8002370BDFC5F0008F6
:1005940000ED00E014ED00E010B5041E03DA064897
:1005A400D02103F0F9FB610904F01F040123A340E7
:1005B400024A42F8213010BDFC5F000800E100E06F
:1005C4000138B0F1807F0AD2064B5860F021064A08
:1005D40082F823100020986007221A6070470120D7
:1005E400704700BF10E000E000ED00E0002800F0DC
:1005F400008110B5044603687F4A934231D0183213
:1006040093422ED0183293422BD01832934228D0E2
:100614001832934225D01832934222D01832934292
:100624001FD0183293421CD002F55672934218D050
:100634001832934215D01832934212D01832934292
:100644000FD0183293420CD01832934209D018328A
:10065400934206D01832934203D06848BF2103F076
:100664009BFB6368C3B1B3F1007F15D0B3F1806F16
:1006740012D0B3F1C06F0FD0B3F1006F0CD0B3F14F
:10068400206F09D0B3F1406F06D0B3F1606F03D08F
:100694005A48C02103F080FBA3683BB1402B05D02E
:1006A400802B03D05548C12103F076FBE368B3F5F2
:1006B400007F04D01BB15148C22103F06DFB2369B4
:1006C400B3F5806F04D01BB14C48C32103F064FB25
:1006D40063694BB1B3F5006F06D0B3F5805F03D007
:1006E4004648C42103F058FBA3694BB1B3F5005F3E
:1006F40006D0B3F5804F03D04048C52103F04CFB2E
:10070400E36943B1B3F5807F05D0202B03D03B4888
:10071400C62103F041FB236A63B1B3F5803F09D0DE
:10072400B3F5003F06D0B3F5403F03D03348C721AB
:1007340003F032FB636A2BB1042B03D02F48C8218A
:1007440003F02AFB636A23B3A36A032B03D92B4860
:10075400CD2103F021FBE36A63B1B3F5000F09D0A7
:10076400B3F1807F06D0B3F1C07F03D02348CE21FC
:1007740003F012FB236B63B1B3F5001F09D0B3F58B
:10078400800F06D0B3F5C00F03D01C48CF2103F06F
:1007940003FB022384F8353020680268184B1340A9
:1007A4006168A2681143E2681143226911436269D6
:1007B4001143A2691143E2691143226A0A431343B4
:1007C400626A042A03D1E16A226B0A431343036079
:1007D4002268536923F00703616A0B43042901D19A
:1007E400A16A0B4353610020E064012384F835308F
:1007F40010BD0120704700BF106002403060000847
:100804003F8010F00346002800F0088790F8352058
:10081400D2B2022A00F0048701680A6822F00102B9
:100824000A60016800220A6001684A6001688A60FF
:100834000168CA6001680A61026821215161026885
:10084400AA498A4254D9A1F589618A424CD001F55A
:1008540080618A4246D0A1F568718A4240D001F590
:1008640080618A423AD0A1F589618A4233D001F588
:1008740080618A422CD0A1F568718A4225D001F5A5
:1008840080618A421ED0A1F589618A4217D001F5A0
:1008940080618A4210D0A1F568718A4209D001F5BD
:1008A40080618A4202D14FF480211EE04FF08071B2
:1008B4001BE04FF4802118E04FF4802115E04FF441
:1008C400802112E04FF480710FE04FF480710CE04E
:1008D4004FF4807109E04FF4807106E0844904E02C
:1008E400834902E0824900E08149824AD1600EE1F5
:1008F40081498A4253D9A8398A424CD001F5806192
:100904008A4246D0A1F568718A4240D001F58061DF
:100914008A423AD0A1F589618A4233D001F58061D7
:100924008A422CD0A1F568718A4225D001F58061F4
:100934008A421ED0A1F589618A4217D001F58061EF
:100944008A4210D0A1F568718A4209D001F580610C
:100954008A4202D14FF480211EE04FF080711BE0E7
:100964004FF4802118E04FF4802115E04FF48021EA
:1009740012E04FF480710FE04FF480710CE04FF4FB
:10098400807109E04FF4807106E0594904E0584948
:1009940002E0574900E05649564A9160B7E057498A
:1009A4008A4253D948398A424CD001F580618A423F
:1009B40046D0A1F568718A4240D001F580618A422F
:1009C4003AD0A1F589618A4233D001F580618A4227
:1009D4002CD0A1F568718A4225D001F580618A4244
:1009E4001ED0A1F589618A4217D001F580618A423F
:1009F40010D0A1F568718A4209D001F580618A425C
:100A040002D14FF480211EE04FF080711BE04FF4BF
:100A1400802118E04FF4802115E04FF4802112E08A
:100A24004FF480710FE04FF480710CE04FF480714B
:100A340009E04FF4807106E02D4904E02C4902E0FE
:100A44002B4900E02A492E4AD16060E02D498A42B0
:100A54005AD001F580618A4246D0A1F568718A4274
:100A640040D001F580618A423AD0A1F589618A4279
:100A740033D001F580618A422CD0A1F568718A4295
:100A840025D001F580618A421ED0A1F589618A4290
:100A940017D001F580618A4210D0A1F568718A42AD
:100AA40009D001F580618A4202D14FF480212CE003
:100AB4004FF0807129E04FF4802126E04FF480212B
:100AC40023E04FF4802120E04FF480711DE04FF4C7
:100AD40080711AE04FF4807117E04FF4807114E0D4
:100AE400034912E0024910E001490EE05864024053
:100AF4000400800000640240B86002405860024074
:100B04000060024010600240AC49AD4A91601A682E
:100B1400AC498A4254D9A1F589618A424CD001F585
:100B240080618A4246D0A1F568718A4240D001F5BD
:100B340080618A423AD0A1F589618A4233D001F5B5
:100B440080618A422CD0A1F568718A4225D001F5D2
:100B540080618A421ED0A1F589618A4217D001F5CD
:100B640080618A4210D0A1F568718A4209D001F5EA
:100B740080618A4202D14FF400111EE04FF00061FF
:100B84001BE04FF4001118E04FF4001115E04FF48E
:100B9400001112E04FF400610FE04FF400610CE02B
:100BA4004FF4006109E04FF4006106E0202104E005
:100BB400202102E0202100E02021834AD1600EE1BF
:100BC40082498A4253D9A8398A424CD001F58061BE
:100BD4008A4246D0A1F568718A4240D001F580610D
:100BE4008A423AD0A1F589618A4233D001F5806105
:100BF4008A422CD0A1F568718A4225D001F5806122
:100C04008A421ED0A1F589618A4217D001F580611C
:100C14008A4210D0A1F568718A4209D001F5806139
:100C24008A4202D14FF400111EE04FF000611BE034
:100C34004FF4001118E04FF4001115E04FF40011C7
:100C440012E04FF400610FE04FF400610CE04FF448
:100C5400006109E04FF4006106E0202104E0202156
:100C640002E0202100E02021574A9160B7E0584972
:100C74008A4253D948398A424CD001F580618A426C
:100C840046D0A1F568718A4240D001F580618A425C
:100C94003AD0A1F589618A4233D001F580618A4254
:100CA4002CD0A1F568718A4225D001F580618A4271
:100CB4001ED0A1F589618A4217D001F580618A426C
:100CC40010D0A1F568718A4209D001F580618A4289
:100CD40002D14FF400111EE04FF000611BE04FF40D
:100CE400001118E04FF4001115E04FF4001112E068
:100CF4004FF400610FE04FF400610CE04FF4006129
:100D040009E04FF4006106E0202104E0202102E024
:100D1400202100E020212A4AD16060E02D498A4246
:100D24005AD001F580618A4246D0A1F568718A42A1
:100D340040D001F580618A423AD0A1F589618A42A6
:100D440033D001F580618A422CD0A1F568718A42C2
:100D540025D001F580618A421ED0A1F589618A42BD
:100D640017D001F580618A4210D0A1F568718A42DA
:100D740009D001F580618A4202D14FF400112CE0C0
:100D84004FF0006129E04FF4001126E04FF4001108
:100D940023E04FF4001120E04FF400611DE04FF414
:100DA40000611AE04FF4006117E04FF4006114E0B1
:100DB400202112E0202110E020210EE00400800018
:100DC400006002405864024000640240B86002407F
:100DD40058600240106002402021AC4A91601A68B9
:100DE400AB498A4254D9A1F589618A424CD001F5B4
:100DF40080618A4246D0A1F568718A4240D001F5EB
:100E040080618A423AD0A1F589618A4233D001F5E2
:100E140080618A422CD0A1F568718A4225D001F5FF
:100E240080618A421ED0A1F589618A4217D001F5FA
:100E340080618A4210D0A1F568718A4209D001F517
:100E440080618A4202D14FF400211EE04FF000710C
:100E54001BE04FF4002118E04FF4002115E04FF49B
:100E6400002112E04FF400710FE04FF400710CE028
:100E74004FF4007109E04FF4007106E0082104E02A
:100E8400082102E0082100E00821824AD1600CE137
:100E940081498A4253D9A8398A424CD001F58061EC
:100EA4008A4246D0A1F568718A4240D001F580613A
:100EB4008A423AD0A1F589618A4233D001F5806132
:100EC4008A422CD0A1F568718A4225D001F580614F
:100ED4008A421ED0A1F589618A4217D001F580614A
:100EE4008A4210D0A1F568718A4209D001F5806167
:100EF4008A4202D14FF400211EE04FF000711BE042
:100F04004FF4002118E04FF4002115E04FF40021C4
:100F140012E04FF400710FE04FF400710CE04FF455
:100F2400007109E04FF4007106E0082104E0082193
:100F340002E0082100E00821564A9160B5E05749D3
:100F44008A4253D948398A424CD001F580618A4299
:100F540046D0A1F568718A4240D001F580618A4289
:100F64003AD0A1F589618A4233D001F580618A4281
:100F74002CD0A1F568718A4225D001F580618A429E
:100F84001ED0A1F589618A4217D001F580618A4299
:100F940010D0A1F568718A4209D001F580618A42B6
:100FA40002D14FF400211EE04FF000711BE04FF41A
:100FB400002118E04FF4002115E04FF4002112E065
:100FC4004FF400710FE04FF400710CE04FF4007126
:100FD40009E04FF4007106E0082104E0082102E072
:100FE400082100E00821294AD1605EE02C498A42A8
:100FF40058D001F580618A4246D0A1F568718A42D1
:1010040040D001F580618A423AD0A1F589618A42D3
:1010140033D001F580618A422CD0A1F568718A42EF
:1010240025D001F580618A421ED0A1F589618A42EA
:1010340017D001F580618A4210D0A1F568718A4207
:1010440009D001F580618A4202D14FF400212AE0DF
:101054004FF0007127E04FF4002124E04FF4002109
:1010640021E04FF400211EE04FF400711BE04FF427
:10107400007118E04FF4007115E04FF4007112E0B4
:10108400082110E008210EE008210CE00060024075
:101094005864024000640240B86002405860024054
:1010A400106002400821A44A91601A68A3498A4248
:1010B40050D9A1F589618A4248D001F580618A42FC
:1010C40042D0A1F568718A423CD001F580618A4220
:1010D40036D0A1F589618A4230D001F580618A4217
:1010E4002AD0A1F568718A4224D001F580618A4230
:1010F4001ED0A1F589618A4217D001F580618A4228
:1011040010D0A1F568718A4209D001F580618A4244
:1011140002D14FF480311AE04FF4800117E04FF40C
:10112400803114E04FF4803111E04FF480310EE04F
:1011340040210CE040210AE0402108E0402106E083
:101144007F4904E07E4902E07D4900E07C497D4A14
:10115400D16002E17C498A424FD9A8398A4248D0F9
:1011640001F580618A4242D0A1F568718A423CD07F
:1011740001F580618A4236D0A1F589618A4230D076
:1011840001F580618A422AD0A1F568718A4224D08F
:1011940001F580618A421ED0A1F589618A4217D087
:1011A40001F580618A4210D0A1F568718A4209D0A4
:1011B40001F580618A4202D14FF480311AE04FF484
:1011C400800117E04FF4803114E04FF4803111E0D6
:1011D4004FF480310EE040210CE040210AE0402130
:1011E40008E0402106E0564904E0554902E054492C
:1011F40000E05349534A9160AFE054498A424FD9C1
:1012040048398A4248D001F580618A4242D0A1F52A
:1012140068718A423CD001F580618A4236D0A1F5DA
:1012240089618A4230D001F580618A422AD0A1F5D1
:1012340068718A4224D001F580618A421ED0A1F5EA
:1012440089618A4217D001F580618A4210D0A1F5E4
:1012540068718A4209D001F580618A4202D14FF453
:1012640080311AE04FF4800117E04FF4803114E02C
:101274004FF4803111E04FF480310EE040210CE056
:1012840040210AE0402108E0402106E02C4904E026
:101294002B4902E02A4900E02949274AD1605CE051
:1012A4002B498A4256D001F580618A4242D0A1F589
:1012B40068718A423CD001F580618A4236D0A1F53A
:1012C40089618A4230D001F580618A422AD0A1F531
:1012D40068718A4224D001F580618A421ED0A1F54A
:1012E40089618A4217D001F580618A4210D0A1F544
:1012F40068718A4209D001F580618A4202D14FF4B3
:10130400803128E04FF4800125E04FF4803122E061
:101314004FF480311FE04FF480311CE040211AE08B
:10132400402118E0402116E0402114E0044912E075
:10133400034910E002490EE0006002405864024094
:101344000100800000640240B8600240586002401E
:1013540010600240B349B44A91601A68B3498A42A2
:1013640054D9A1F589618A424CD001F580618A4241
:1013740046D0A1F568718A4240D001F580618A4265
:101384003AD0A1F589618A4233D001F580618A425D
:101394002CD0A1F568718A4225D001F580618A427A
:1013A4001ED0A1F589618A4217D001F580618A4275
:1013B40010D0A1F568718A4209D001F580618A4292
:1013C40002D14FF480111EE04FF080611BE04FF416
:1013D400801118E04FF4801115E04FF4801112E0F1
:1013E4004FF480610FE04FF480610CE04FF48061B2
:1013F40009E04FF4806106E0102104E0102102E0CE
:10140400102100E010218A4AD16000E189498A4212
:1014140053D9A8398A424CD001F580618A4246D01A
:10142400A1F568718A4240D001F580618A423AD0C0
:10143400A1F589618A4233D001F580618A422CD0BA
:10144400A1F568718A4225D001F580618A421ED0D7
:10145400A1F589618A4217D001F580618A4210D0D2
:10146400A1F568718A4209D001F580618A4202D1EE
:101474004FF480111EE04FF080611BE04FF48011A7
:1014840018E04FF4801115E04FF4801112E04FF48E
:1014940080610FE04FF480610CE04FF4806109E05B
:1014A4004FF4806106E0102104E0102102E01021D5
:1014B40000E010215E4A9160A9E05F498A4253D955
:1014C40048398A424CD001F580618A4246D0A1F560
:1014D40068718A4240D001F580618A423AD0A1F510
:1014E40089618A4233D001F580618A422CD0A1F50A
:1014F40068718A4225D001F580618A421ED0A1F527
:1015040089618A4217D001F580618A4210D0A1F521
:1015140068718A4209D001F580618A4202D14FF490
:1015240080111EE04FF080611BE04FF4801118E041
:101534004FF4801115E04FF4801112E04FF48061F4
:101544000FE04FF480610CE04FF4806109E04FF448
:10155400806106E0102104E0102102E0102100E087
:101564001021314AD16052E034498A424CD001F50D
:1015740080618A4246D0A1F568718A4240D001F563
:1015840080618A423AD0A1F589618A4233D001F55B
:1015940080618A422CD0A1F568718A4225D001F578
:1015A40080618A421ED0A1F589618A4217D001F573
:1015B40080618A4210D0A1F568718A4209D001F590
:1015C40080618A4202D14FF480111EE04FF08061A5
:1015D4001BE04FF4801118E04FF4801115E04FF434
:1015E400801112E04FF480610FE04FF480610CE051
:1015F4004FF4806109E04FF4806106E0102104E0BB
:10160400102102E0102100E01021074A916000201F
:10161400D86483F8350083F834007047012070479C
:1016240001207047010080000060024058640240BD
:1016340000640240B86002405860024010600240FA
:1016440030B40568029C44EA03436B640368DA63BC
:101654004368B3F5403F35D101F07F4201F47F0385
:1016640001F47F45C9B284681CB92B431343194361
:1016740025E0012C02D12B43194320E0022C07D191
:10168400DA0CAB0AD20242EA431343EAD10116E070
:10169400032C0AD1D40FDA0CEB0A920242EA431368
:1016A40043EAC43343EAD10109E0140F1A0D2B0BAA
:1016B400120242EA031343EA043343EA11110368B2
:1016C400996301E00368D96030BC7047704700BF7C
:1016D40000284FD010B504460268274B9A4203D025
:1016E4002648C22102F058FB636863B1B3F5803F1A
:1016F40009D0B3F5003F06D0B3F5403F03D01F48EF
:10170400C32102F049FBA368042B03D91B48C4215D
:1017140002F042FBE368B3F5804F03D31748C521B9
:1017240002F03AFB94F8393013F0FF0F02D120464F
:10173400FFF7CCFF022384F839302268136823F4BE
:10174400403361680B4313602268536B23F0070333
:10175400A1680B4353632268136C23F47F5323F073
:101764003F03E1680B4313640020E063012384F822
:10177400393010BD0120704700B00240606000089D
:101784002DE9F04182B0089E90F83840012C2CD00D
:101794001D46174688460446012380F83830022344
:1017A40080F83930B6F5803F04D312484FF4BC7149
:1017B40002F0F2FAB5F5804F04D30E4840F27911E5
:1017C40002F0EAFA2268136823F00103136000961A
:1017D400204641463A462B46FFF732FF22681368FB
:1017E40043F001031360002000E0022002B0BDE8D2
:1017F400F08100BF6060000870B504460D460368C0
:101804001B6813F0010F30D0FEF74AFE064627E0AE
:1018140059685A6802F0010211F0200F00D15AB140
:1018240020229A60236801209860042384F83930C8
:10183400002384F8383070BDB5F1FF3F10D025B1D6
:10184400FEF72EFE801BA8420AD9002384F8383004
:10185400E36B43F02003E363032084F8390070BD95
:1018640023685A6812F0020FD2D02368DB6913F0A0
:10187400200F24D0FEF714FE06461BE05A6812F02F
:10188400080F06D008229A60042384F83930012016
:1018940070BDB5F1FF3F0DD025B1FEF701FE801BF1
:1018A400A84207D9E36B43F02003E363032084F8E1
:1018B400390070BD23685A6812F0100FDED0236817
:1018C40002229A60236810229A60012384F8393036
:1018D400002084F8380070BD90F83830012B00F0F7
:1018E400B18070B50D460446012380F838300223D8
:1018F40080F83930994204D953484FF4567102F0B4
:101904004BFA04EB05139B69B3F5804F04D34E489F
:1019140040F2593102F040FA6368B3F5403F15D004
:1019240004EB0513DB690A2B04D947484FF45771BC
:1019340002F032FA63684BB104EB05131B6A022B05
:1019440004D9414840F25F3102F026FA002D39D122
:101954002068436A3D49194004EB0513DB69A3F190
:101964000902012A0BD8AA1C1201A618A25843EA9C
:101974000242736803F07F4313430B4309E0AA1C3C
:101984001201A618A25843EA0243726843EA0263AA
:101994000B43436221688B6923F47F5323F03F0395
:1019A40004EB0512906903438B61D269093A012A59
:1019B40041D804EB05156A6A22F07F42134322687A
:1019C400936238E02068C3692049194004EB051389
:1019D400DB69A3F10902012A0BD8AA1C1201A6187B
:1019E400A25843EA0242736803F07F4313430B4354
:1019F40009E0AA1C1201A618A25843EA024372681D
:101A040043EA02630B43C36121680B6923F47F53E8
:101A140023F03F0304EB0512906903430B61D26981
:101A2400093A012A07D804EB05156A6A22F07F42B5
:101A3400134322681362012384F83930002084F8A8
:101A4400380070BD0220704760600008F0FFFC00A1
:101A54002DE9F84F80460F46AE4B98422BD003F544
:101A64008063984227D003F58063984223D003F51E
:101A7400806398421FD003F5806398421BD003F51E
:101A84008063984217D003F58063984213D003F51E
:101A9400806398420FD003F5806398420BD003F51E
:101AA4008063984207D003F58063984203D09A4834
:101AB400C52102F071F93B881BB99748C62102F091
:101AC4006BF97B68012B22D9112B20D0022B1ED05D
:101AD400122B1CD0914A934219D002F580129342E2
:101AE40015D002F58012934211D0A2F5F812934258
:101AF4000DD002F58012934209D002F58012934270
:101B040005D0032B03D08448C72102F045F9BB68F4
:101B1400022B03D98048C82102F03EF9002437E1A2
:101B2400A1460125A5403B6803EA050AAA4540F001
:101B34002E817B68022B01D0122B58D13B69002BDC
:101B440045D0092B43D0002B41D0002B3FD0F3B319
:101B5400EBB3012B3BD03AD0022B38D037D036D060
:101B6400032B34D0042B32D031D030D0052B2ED0DF
:101B74002DD0092B2BD0062B29D0092B27D0072BAE
:101B840025D024D023D0082B21D020D01FD0092B3E
:101B94001DD01CD00A2B1AD019D00B2B17D00C2B0C
:101BA40015D014D00D2B12D00F2B10D0052B0ED026
:101BB4000DD00CD0082B0AD009D00C2B07D0062B43
:101BC40005D00E2B03D05448D92102F0E5F8E608DD
:101BD400083658F8261004F0070080000F238340CD
:101BE40021EA03023B698340134348F82630D8F8BE
:101BF40000304FEA440B032606FA0BF6F64306EAD6
:101C040003027B6803F0030303FA0BF31343C8F8DE
:101C140000307B685A1E012A03D9112B01D0122BE4
:101C24001CD1FB68032B03D93B48EC2102F0B4F828
:101C3400D8F8083006EA0302FB6803FA0BF31343EF
:101C4400C8F80830D8F8043023EA05037D68C5F3E2
:101C5400001505FA09F51D43C8F80450D8F80C30EE
:101C64003340BE6806FA0BF61E43C8F80C607B6866
:101C740013F0805F00F08B80294A536C43F4804357
:101C84005364A308991CA2F5803252F8211004F081
:101C9400030080000F22824021EA02011D4A904580
:101CA40040D002F58062904531D002F580629045C3
:101CB4002BD002F58062904525D002F580629045D4
:101CC4001FD002F58062904519D002F580629045DC
:101CD40013D002F5806290450DD002F580629045E4
:101CE40007D002F58062904501D109221BE00A2247
:101CF40019E0082217E0072215E0062213E0052266
:101D040011E004220FE003220DE002220BE0012285
:101D140009E000BF000002409060000800001110BC
:101D240000380240002282400A4302331B4941F832
:101D340023201B4B1A686FEA0A0303EA020178683E
:101D440010F4803F01D04AEA0201154A116052683A
:101D540003EA0201786810F4003F01D04AEA020164
:101D64000F4A5160926803EA0201786810F4801FF8
:101D740001D04AEA02010A4A9160D26813407968A4
:101D840011F4001F01D04AEA0203054AD36001346A
:101D94000F2C7FF6C5AEBDE8F88F00BF00380140B8
:101DA400003C014070B5064615460C4621B9094869
:101DB4004FF4D67101F0F0FF012D04D9054840F22B
:101DC400AD1101F0E9FF0DB1B46170BD2404B4613B
:101DD40070BD00BF90600008F0B54D680468E3680A
:101DE400C3F30B431D44D2011444D4F8883003F4E4
:101DF4007043C4F88830046816190B68E468C4F3A7
:101E04000B442344013343EA0543C6F88830CD68C4
:101E14000468E368C3F30A031D441444D4F88C3003
:101E240003F47043C4F88C30046816198B68E468B2
:101E3400C4F30A042344013343EA0543C6F88C304F
:101E440003681344D3F8944024F00704C3F894407F
:101E5400036813440C69C3F8944091F831E091F895
:101E640032308F6906681644D6F89C400025C6F8BF
:101E74009C500668164491F8304044EA0E2444EA23
:101E8400034343EA0763C6F89C3003681344D3F85A
:101E9400984024F0FF04C3F89840036813444C6945
:101EA400C3F8984003681344D3F8A04024F4E064D2
:101EB40024F00704C3F8A04003681344CE690C6AF5
:101EC4003443C3F8A04003681344D3F8AC40C3F8C8
:101ED400AC50036813444C6AC3F8AC400B695BB163
:101EE400012B0BD0042B0BD0022B0BD0032B0BD0CC
:101EF400072B0BD102240AE0042408E0032406E0A3
:101F0400022404E0022402E0022400E00124036825
:101F14001344D3F8B05005F0E025C3F8B05003687B
:101F240013448D6A04FB05F4E51C45EA0444C3F834
:101F3400B04003681344D3F8B44024F4FF6424F09D
:101F44000704C3F8B44003681344C96AC3F8B4105F
:101F540003681A44D2F8843043F00103C2F8843091
:101F6400F0BD00BF704700BF002800F0E38038B523
:101F740004460268704B9A4203D070489F2101F0D6
:101F84000BFF6369B3F5805F03D36C48A02101F0B4
:101F940003FFA369B3F5006F03D36848A12101F0DF
:101FA400FBFEE369B3F5805F03D36448A22101F02B
:101FB400F3FE236AB3F5006F03D36048A32101F055
:101FC400EBFEA36AB3F5006F03D35C48A42101F0D0
:101FD400E3FE636AB3F5805F03D35848A52101F09B
:101FE400DBFE236BB3F5006F03D35448A62101F045
:101FF400D3FEE36AB3F5805F03D35048A72101F011
:10200400CBFE636833B1B3F1004F03D04B48A82132
:1020140001F0C2FEA36833B1B3F1804F03D0474847
:10202400A92101F0B9FEE36833B1B3F1005F03D035
:102034004248AA2101F0B0FE236933B1B3F1805FB5
:1020440003D03E48AB2101F0A7FE94F8A13013F071
:10205400FF0F02D12046FFF785FF022384F8A13049
:102064002268936923F070439361216888696368E7
:10207400A2681343E2681A432369134303438B6141
:1020840021688A682E4B1A408A60656921688868CD
:10209400A26942EA054202438A602168CA681A407A
:1020A400CA60E5692168C868226A42EA05420243B7
:1020B400CA6021680A691A400A61656A2168086968
:1020C400A26A42EA054202430A61226851690B404E
:1020D4005361E06A22685169236B43EA00430B436E
:1020E400536194F8353094F8362012042068C16A9C
:1020F40001F07F41C1622168C86A42EA032394F86F
:10210400342013430343CB622268536B43F004032C
:1021140053632268536B43F0020353632268936949
:1021240043F0010393610020C4F8A400012384F860
:10213400A13038BD0120704700680140C06000082C
:1021440000F800F090F8A030012B00F08A802DE90F
:10215400F04190460E460746012380F8A030022342
:1021640080F8A1309A4204D93F4840F2DB1101F0D3
:1021740013FE3369072B04D93B484FF4EE7101F089
:102184000BFEF369B3F5806F07D0B3F5C06F04D0CD
:10219400354840F2DD1101F0FFFD336A052B06D00E
:1021A400072B04D030484FF4EF7101F0F5FD33688C
:1021B400B3F5805F04D32C4840F2DF1101F0ECFD4D
:1021C4007368B3F5803F04D327484FF4F07101F0EE
:1021D400E3FDB368B3F5805F04D3234840F2E11113
:1021E40001F0DAFDF368B3F5803F04D31E484FF4E1
:1021F400F17101F0D1FDB369FF2B04D91A4840F203
:10220400E31101F0C9FDB36AB3F5005F04D31648C6
:102214004FF4F27101F0C0FDF36AB3F5006F04D31B
:10222400114840F2E51101F0B7FD342404FB0874B1
:10223400383435460FCD0FC40FCD0FC40FCD0FC4A6
:102244002B682360384631464246FFF7C5FD3A689D
:102254000123536287F8A130002087F8A000BDE86D
:10226400F0810220704700BFC060000890F8A030E1
:10227400012B11D0012280F8A020022380F8A13084
:1022840006498B6943F480338B6180F8A1200023D5
:1022940080F8A0301846704702207047006801405B
:1022A40038B5044603680F2B04D9B34840F21B1118
:1022B40001F072FD236813F0010F5FD06368012BF6
:1022C40006D9052B04D0AC484FF4907101F064FD9D
:1022D400AA4B9B6803F00C03042B0AD0A74B9B6802
:1022E40003F00C03082B0DD1A44B5B6813F4800F8F
:1022F40008D0A24B1B6813F4003F3FD06368002B47
:102304003CD1FCE100229E4B1A70FEF7C9F8054649
:1023140007E0FEF7C5F8401B41F28833984200F20B
:10232400F081964B1B6813F4003FF2D12279944B51
:102334001A7063688BB1FEF7B3F8054607E0FEF741
:10234400AFF8401B41F28833984200F2DC818B4B9A
:102354001B6813F4003FF2D010E0FEF7A1F8054625
:1023640007E0FEF79DF8401B41F28833984200F2E3
:10237400CC81824B1B6813F4003FF2D1236813F025
:10238400020F6DD0E368012B04D97B484FF4B07180
:1023940001F002FD23691F2B04D9774840F2611133
:1023A40001F0FAFC754B9B6813F00C0F0AD0734BC9
:1023B4009B6803F00C03082B1CD1704B5B6813F46F
:1023C400800F17D16D4B1B6813F0020F03D0E36825
:1023D400012B40F09C816948026822F0F8012269CF
:1023E400F82393FAA3F3B3FA83F3DBB29A400A43D4
:1023F400026035E0E3680BB30122624B1A60FEF71A
:102404004FF8054605E0FEF74BF8401B642800F240
:1024140080815A4B1B6813F0020FF4D057480368AD
:1024240023F0F8012269F82393FAA3F3B3FA83F3B0
:10243400DBB29A4041EA0203036011E00022514BEF
:102444001A60FEF72DF8054605E0FEF729F8401B53
:10245400642800F26081494B1B6813F0020FF4D129
:10246400236813F0080F2ED06369012B04D9424866
:102474004FF4D07101F090FC636993B10122424B97
:102484001A60FEF70DF8054605E0FEF709F8401B53
:10249400642800F24281394B5B6F13F0020FF4D0D1
:1024A40011E00022384B1A60FDF7FAFF054605E0FB
:1024B400FDF7F6FF401B642800F231812F4B5B6F60
:1024C40013F0020FF4D1236813F0040F6FD0A36844
:1024D400012B06D9052B04D027484FF4E57101F0F0
:1024E4005BFC264A136C43F080531364A2F5E43278
:1024F400136843F480731360FDF7D2FF054605E0CB
:10250400FDF7CEFF401B642800F20B811F4B1B68B4
:1025140013F4807FF4D000221D4B1A70FDF7C0FF26
:10252400054607E0FDF7BCFF401B41F288339842A3
:1025340000F2F980114B1B6F13F0020FF2D1227AD3
:10254400134B1A70A368012B11D1FDF7A9FF05469F
:1025540007E0FDF7A5FF401B41F28833984200F2E3
:10256400E480064B1B6F13F0020FF2D01FE0FDF75F
:1025740097FF054616E000BF0061000800380240DE
:102584000238024000004742800E4742007000407B
:1025940070380240FDF784FF401B41F288339842B3
:1025A40000F2C580684B1B6F13F0020FF2D1A369D0
:1025B400022B04D9654840F20E2101F0EDFBA3691A
:1025C400002B00F0B680604A926802F00C02082AE0
:1025D40000F0B180022B7FD1E3693BB1B3F5800FEA
:1025E40004D05A4840F2172101F0D6FB236A3F2B4E
:1025F40004D956484FF4067101F0CEFB636AC03B20
:10260400F02B04D9514840F2192101F0C5FBA36A0B
:10261400022B0AD0042B08D0062B06D0082B04D09A
:102624004A4840F21A2101F0B7FBE36A043B0B2B42
:1026340004D9464840F21B2101F0AEFB0022444B72
:102644001A60FDF72DFF054604E0FDF729FF401B46
:10265400642872D83C4B1B6813F0007FF5D1216AC3
:10266400626A47F6C07393FAA3F3B3FA83F3DBB257
:102674009A401143A36A5B08013B4FF4403292FA3B
:10268400A2F2B2FA82F2D2B293400B43E26943EA75
:102694000201E36A4FF0706292FAA2F2B2FA82F295
:1026A400D2B203FA02F241EA020343F00053264A8B
:1026B40053600122264B1A60FDF7F2FE044604E043
:1026C400FDF7EEFE001B642839D81F4B1B6813F07E
:1026D400007FF5D0002038BD00221D4B1A60FDF7A5
:1026E400DFFE044604E0FDF7DBFE001B642828D867
:1026F400154B1B6813F0007FF5D1002038BD012075
:1027040038BD032038BD032038BD032038BD012067
:1027140038BD032038BD032038BD032038BD032055
:1027240038BD032038BD032038BD032038BD032045
:1027340038BD002038BD012038BD032038BD03203A
:1027440038BD032038BD00BF0038024000610008D6
:102754006000474270B504460D460368013B0E2BEA
:1027640004D9884840F27E2101F016FB0F2D04D9CC
:10277400844840F27F2101F00FFB834B1B6803F078
:102784000F03AB4280F08B80EAB27F4B1A701B6858
:1027940003F00F03AB4240F05181236813F0020FA2
:1027A4001DD0A368A3B1802B12D0902B10D0A02BE6
:1027B4000ED0B02B0CD0C02B0AD0D02B08D0E02BDD
:1027C40006D0F02B04D06F4840F2952101F0E4FAD2
:1027D4006E498B6823F0F002A36813438B6023686F
:1027E40013F0010F00F0E8806368022B04D96548F8
:1027F4004FF4277101F0D0FA6268012A05D1634BC6
:102804001B6813F4003F0ED11AE1022A05D15F4B75
:102814001B6813F0007F06D114E15C4B1B6813F0B6
:10282400020F00F0118159498B6823F0030313430D
:102834008B60FDF735FE05466368012B0FD107E079
:10284400FDF72EFE401B41F28833984200F2FE80D1
:102854004E4B9B6803F00C03042BF1D1ACE0022B2C
:1028640017D107E0FDF71CFE401B41F28833984264
:1028740000F2EE80454B9B6803F00C03082BF1D16A
:102884009AE0FDF70DFE401B41F28833984200F2B6
:10289400E1803E4B9B6813F00C0FF2D18CE023686F
:1028A40013F0020F1DD0A368A3B1802B12D0902B7C
:1028B40010D0A02B0ED0B02B0CD0C02B0AD0D02B14
:1028C40008D0E02B06D0F02B04D02E484FF43971F9
:1028D40001F062FA2D498B6823F0F002A3681343D8
:1028E4008B60236813F0010F5ED06368022B04D958
:1028F400244840F2EB2101F04FFA6268012A05D125
:10290400224B1B6813F4003F0ED1A5E0022A05D127
:102914001E4B1B6813F0007F06D19FE01B4B1B6806
:1029240013F0020F00F09C8018498B6823F0030316
:1029340013438B60FDF7B4FD06466368012B0FD18A
:1029440007E0FDF7ADFD801B41F28833984200F2A9
:1029540089800E4B9B6803F00C03042BF1D123E018
:10296400022B1CD106E0FDF79BFD801B41F288334E
:10297400984279D8054B9B6803F00C03082BF2D1DD
:1029840012E000BF00610008003C02400038024031
:10299400FDF786FD801B41F28833984266D8354B9B
:1029A4009B6813F00C0FF3D1EAB2334B1A701B6817
:1029B40003F00F03AB425BD1236813F0040F19D06B
:1029C400E36883B1B3F5805F0DD0B3F5A05F0AD09F
:1029D400B3F5C05F07D0B3F5E05F04D0274840F2F9
:1029E4003B3101F0D9F923498B6823F4E052E368C1
:1029F40013438B60236813F0080F1AD0236983B143
:102A0400B3F5805F0DD0B3F5A05F0AD0B3F5C05F16
:102A140007D0B3F5E05F04D0184840F2423101F02A
:102A2400BBF9144A936823F46043216943EAC10360
:102A340093600F20FDF7FEFC002070BD012070BDE7
:102A4400012070BD012070BD012070BD032070BD48
:102A5400032070BD032070BD012070BD012070BD36
:102A6400012070BD032070BD032070BD032070BD24
:102A7400012070BD00380240003C024000610008A3
:102A8400224B9B6803F00C03042B3DD0082B01D090
:102A94001F4870471D4B586800F03F005B6813F4F3
:102AA400800F10D01B4BB3FBF0F3184A506847F665
:102AB400C072104092FAA2F2B2FA82F2D2B2D040BC
:102AC40000FB03F30FE0124BB3FBF0F30F4A506823
:102AD40047F6C072104092FAA2F2B2FA82F2D2B26F
:102AE400D04000FB03F3094A506800F440304FF42F
:102AF400403292FAA2F2B2FA82F2D2B2D04001305B
:102B04004000B3FBF0F070470248704700380240C1
:102B14000024F40000127A0008B5FFF7B1FF094B56
:102B24009B6803F0F002F02393FAA3F3B3FA83F360
:102B3400DBB222FA03F3044AD35CD840034B186097
:102B440008BD00BF00380240F06000080C000020FF
:102B540038B504460368013B2E2B03D9BE487221C5
:102B640001F01AF9236813F0030F00F083806368FF
:102B7400C03BF02B03D9B8487D2101F00DF90022A8
:102B8400B64B1A60FDF78CFC054605E0FDF788FCA2
:102B9400401B642800F28281B14B1B6813F0006F64
:102BA400F4D1236813F0010F1ED0A368023B052B58
:102BB40003D9A948932101F0EFF8626847F6C0737E
:102BC40093FAA3F3B3FA83F3DBB202FA03F1A26834
:102BD4004FF0E04393FAA3F3B3FA83F3DBB29A40E2
:102BE4000A439F4BC3F88420236813F0020F2FD0AD
:102BF400E368023B0D2B03D99748A02101F0CCF8E0
:102C0400E369013B1F2B03D99348A12101F0C4F8C8
:102C14009348D0F8843003F0E0434FF0E04292FA56
:102C2400A2F2B2FA82F2D2B223FA02F16568E36840
:102C34001A0642EA851343EA0173C0F88430D0F8D7
:102C44008C3023F01F02E369013B1343C0F88C303E
:102C54000122824B1A60FDF723FC054605E0FDF7CF
:102C64001FFC401B642800F21B817D4B1B6813F082
:102C7400006FF4D0236813F00C0F00F09A802369DE
:102C8400313BB3F5C07F03D37348C62101F084F808
:102C94000022744B1A60FDF703FC054605E0FDF7BE
:102CA400FFFB401B642800F2FD806D4B1B6813F092
:102CB400005FF4D1236813F0040F30D06369023B42
:102CC4000D2B03D96448DB2101F066F8236A013B2C
:102CD4001F2B03D96048DC2101F05EF86049D1F86C
:102CE400883003F0E0434FF0E04292FAA2F2B2FAE5
:102CF40082F2D2B223FA02F2206963691B0643EA24
:102D0400801343EA0273C1F88830D1F88C3023F47D
:102D1400F853226A013A43EA0223C1F88C3023684B
:102D240013F0080F34D0A369023B052B03D94A489A
:102D3400EB2101F031F8636A63B1B3F5803F09D048
:102D4400B3F5003F06D0B3F5403F03D04248EC2131
:102D540001F022F84249D1F8883003F070634FF053
:102D6400706292FAA2F2B2FA82F2D2B2D34022692B
:102D74001B0643EA8213A26943EA0273C1F888304E
:102D8400D1F88C3023F44032636A1343C1F88C3099
:102D94000122344B1A60FDF783FB054604E0FDF77E
:102DA4007FFB401B64287FD82D4B1B6813F0005F0A
:102DB400F5D0236813F0200F66D0294A136C43F032
:102DC40080531364A2F5E432136843F480731360F0
:102DD400FDF766FB054604E0FDF762FB401B642833
:102DE40064D8214B1B6813F4807FF5D01C4B1A6FF9
:102DF400A36A534013F4407F09D0194A136F23F494
:102E040040731A4901200860002008601367A36A10
:102E1400B3F5807F0FD1FDF743FB054606E0FDF7D0
:102E24003FFB401B41F28833984241D80C4B1B6F47
:102E340013F0020FF3D0A36A03F44072B2F5407F9B
:102E440016D107498A6822F4F81223F0704323F458
:102E5400407313438B6010E0306100086800474200
:102E6400003802407000474200700040400E474264
:102E7400114A936823F4F81393600F4A116FA36AFD
:102E8400C3F30B030B431367236813F0100F11D024
:102E940094F82C20094B1A60002038BD032038BD5B
:102EA400032038BD032038BD032038BD032038BDBE
:102EB400032038BD002038BD00380240E0114742ED
:102EC400704700BFD8B138B504460D4690F82C3091
:102ED40013F0FF0F01D1FFF7F3FF022384F82C3026
:102EE400214651F8040B00F025FD2068294662684C
:102EF40000F0D6FD012384F82C30002038BD0120D9
:102F0400704700BF38B590F82C30DBB2022B14D0D8
:102F14000D460446022380F82C30006800F05EFE63
:102F24002B68022B04D1052384F82C30002038BDF3
:102F3400012384F82C30002038BD022038BD00BFA6
:102F440090F82C30DBB2022B0CD010B504460223CF
:102F540080F82C30006800F0A3FE012384F82C30A4
:102F6400002010BD022070472DE9F04106460C46B2
:102F740090461D46FDF794FA0746B8F1000F2AD093
:102F84005BE0B5F1FF3F26D025B1FDF789FAC01B00
:102F9400A84220D93268536823F0E00353603268B2
:102FA400136823F040031360B36AB3F5005F09D1DB
:102FB4003268136823F4005313603268136843F4CF
:102FC40000531360012386F85130002386F85030F3
:102FD4000320BDE8F08133689B682340A342D0D12D
:102FE4000020BDE8F081B5F1FF3F26D025B1FDF703
:102FF40057FAC01BA84220D93268536823F0E00373
:1030040053603268136823F040031360B36AB3F566
:10301400005F09D13268136823F4005313603268E7
:10302400136843F400531360012386F851300023DE
:1030340086F850300320BDE8F08133689B68234054
:10304400A342D0D00020BDE8F08100BF704700BF8C
:10305400002800F0AC8010B50446436833B1B3F5E2
:10306400827F03D05348B72100F096FEA3684BB18A
:10307400B3F5806F06D0B3F5004F03D04D48B821A7
:1030840000F08AFEE368B3F5006F04D01BB1494831
:10309400B92100F081FE23692BB1022B03D04548EE
:1030A400BA2100F079FE6369012B03D94148BB21A1
:1030B40000F072FEA369B3F5007F07D033B1B3F516
:1030C400802F03D03B48BC2100F066FEE3698BB13E
:1030D400082B0FD0102B0DD0182B0BD0202B09D080
:1030E400282B07D0302B05D0382B03D03148BD21F5
:1030F40000F052FE236A2BB1802B03D02D48BE2151
:1031040000F04AFE636A2BB1102B03D02948BF217B
:1031140000F042FEA36A33B1B3F5005F03D0254843
:10312400C02100F039FEE36A013B4FF6FE72934280
:1031340003D92048C12100F02FFE94F8513013F038
:10314400FF0F02D12046FFF781FF022384F851309C
:103154002268136823F04003136021686268A3683F
:103164001A43E3681A4323691A4363691A43A36938
:1031740003F400731343E2691343226A1343A26AFC
:103184001A430A602168638B03F00402636A1343E1
:103194004B602368E26A1A612268D36923F40063EE
:1031A400D36100206065012384F8513010BD0120F3
:1031B400704700BF64610008704700BF78B110B564
:1031C40004460268136823F040031360FFF7F4FF1A
:1031D4000020606584F8510084F8500010BD01207F
:1031E400704700BFF0B583B004461D4690F85130D7
:1031F400DBB2012B40F0CE800F461646002900F0CA
:10320400CB80002A00F0CA8083683BB1B3F5004F3D
:1032140004D067484FF4B97100F0BEFD94F8503003
:10322400012B00F0BD80012384F85030122384F870
:103234005130002363652763A686E686E364A364AE
:10324400A387E387A36AB3F5005F09D122681368F3
:1032540023F4005313602268136843F4005313608B
:10326400A368B3F5004F04D12268136843F4804384
:10327400136023681A6812F0400F03D11A6842F0F1
:1032840040021A60E368002B2CD1636813B1E38E0B
:10329400012B1AD12268236B591C21631B78D3603C
:1032A400E38E013BE38610E02046022100222B46F8
:1032B400FFF75AFE002875D12268236B591C21633D
:1032C4001B78D360E38E013BE386E38E002BEBD1C6
:1032D400A36AB3F5005F33D12268136843F48053C3
:1032E40013602DE0636813B1E38E012B1CD12368B6
:1032F400226B1288DA60236B02332363E38E013B73
:10330400E38611E02046022100222B46FFF72CFE23
:10331400002849D12368226B1288DA60236B0233B8
:103324002363E38E013BE386E38E002BEAD1A36A99
:10333400B3F5005F04D12268136843F4805313602B
:103344002046022100222B46FFF70EFE28B1636DB2
:1033540043F010036365032327E020468021012204
:103364002B46FFF701FE034628B1636D43F01003BB
:103374006365032319E0A2682AB92268D168019120
:1033840092680192019A012284F85120002284F863
:1033940050200AE0022308E0012306E0012304E0B0
:1033A400022302E0032300E00323184603B0F0BD28
:1033B40064610008F0B583B004460E4617461D4606
:1033C40090F85130DBB2012B02D0222B40F08481E3
:1033D400002E00F08381002F00F08281002D00F088
:1033E4008181A36823B19E4840F2CD2100F0D4FC32
:1033F40094F85030012B00F07781012384F8503089
:1034040094F85130DBB2012B02D1322384F85130CD
:1034140000236365A763A587E5872663A586E586FC
:10342400A364E364A36AB3F5005F09D12268136857
:1034340023F4005313602268136843F400531360A9
:1034440023681A6812F0400F03D11A6842F0400250
:103454001A60E368B3F5006F7DD163682BB1B3F5EF
:10346400827F0CD1E38E012B09D12368226B128851
:10347400DA60236B02332363E38E013BE386E38E3E
:10348400002B4DD1A36AB3F5005F04D12268136801
:1034940043F480531360204601210022089BFFF768
:1034A40063FD002840F02281A36B2268D2681A8051
:1034B400A36B0233A363E38F013BE387BEE02046A3
:1034C40002210022089BFFF74FFD002840F01081E5
:1034D4002368226B1288DA60236B02332363E38E42
:1034E400013B9BB2E38643B9A36AB3F5005F04D101
:1034F4002268136843F4805313602046012100229C
:10350400089BFFF731FD002840F0F480A36B22688C
:10351400D2681A80A36B0233A363E38F013BE38772
:10352400E38E002BCBD16368002B40F087802046CC
:1035340001210022089BFFF717FD002840F0DC80E2
:10354400A36B2268D2681A80A36B0233A363E38F50
:10355400013BE38772E063682BB1B3F5827F0BD143
:10356400E38E012B08D12268236B591C21631B783D
:10357400D360E38E013BE386E38E002B48D1A36A3C
:10358400B3F5005F04D12268136843F480531360D9
:10359400204601210022089BFFF7E6FC002840F0AA
:1035A400AD80A36B2268D2681A70E38F013BE38776
:1035B40044E0204602210022089BFFF7D5FC0028A6
:1035C40040F09E802268236B591C21631B78D360D2
:1035D400E38E013B9BB2E38643B9A36AB3F5005F74
:1035E40004D12268136843F48053136020460121F8
:1035F4000022089BFFF7B8FC002840F08380A36BEF
:103604005A1CA2632268D2681A70E38F013BE387D5
:10361400E38E002BCDD1636883B9204601210022BB
:10362400089BFFF7A1FC00286ED1A36B5A1CA26370
:103634002268D2681A70E38F013BE387A36AB3F56B
:10364400005F16D1204601210022089BFFF78CFC65
:1036540040B1636D43F002036365032355E000BF8B
:10366400646100082368DB689BB2ADF80630BDF8DE
:103674000630204680210122089BFFF775FC034693
:1036840028B1636D43F01003636503233DE0012219
:1036940084F8512021688A6802F01002A06AB0F50B
:1036A400005F15D1A2B1636D43F002036365B0F509
:1036B400005F08D10B6823F400530B602268136881
:1036C40043F400531360002384F8503001231CE0BA
:1036D400002284F8502018E0022316E0012314E0AD
:1036E400012312E0012310E002230EE003230CE087
:1036F40003230AE0032308E0032306E0032304E092
:10370400032302E0032300E00323184603B0F0BDC3
:10371400F0B585B004461E4690F85130DBB2012B5B
:1037240040F0F4800F461546002900F0F180002A8D
:1037340000F0F08090F85030012B00F0ED80012370
:1037440080F85030222380F8513000234365A16370
:10375400A287E2878364C3648386C3868368B3F5E0
:10376400004F04D10268136823F480431360A36AF2
:10377400B3F5005F09D12268136823F40053136082
:103784002268136843F4005313606368B3F5827FBF
:103794000CD1A36853B984F85030009620463946BA
:1037A4003A462B46FFF706FE0546BCE023681A6836
:1037B40012F0400F03D11A6842F040021A60E36825
:1037C40093B131E02046012100223346FFF7CCFBC0
:1037D400002840F0A380A36B5A1CA2632268D2681D
:1037E4001A70E38F013BE387E38F012BEAD8A36AC6
:1037F400B3F5005F24D12268136843F48053136047
:103804001EE02046012100223346FFF7ADFB0028CD
:1038140040F08680A36B2268D2681A80A36B0233BF
:10382400A363E38F013BE387E38F012BE9D8A36A0A
:10383400B3F5005F04D12268136843F48053136026
:103844002046012100223346FFF78EFB054600285F
:1038540068D1E36833B9A36B5A1CA2632268D268A7
:103864001A7006E0A36B2268D2681A80A36B023335
:10387400A363E38F013BE387A36AB3F5005F13D12E
:103884002046012100223346FFF76EFB28B1636D09
:1038940043F002036365032545E02368DB689BB2BC
:1038A400ADF80E30BDF80E306368B3F5827F0BD1EE
:1038B400A368B3F5004F02D0B3F5806F04D122683A
:1038C400136823F040031360012384F85130226805
:1038D400936803F01003A16AB1F5005F12D18BB1B4
:1038E400636D43F002036365136823F400531360AC
:1038F4002268136843F400531360002384F85030A3
:10390400012510E0002384F850300CE002250AE081
:10391400012508E0012506E0022504E0032502E074
:10392400032500E00325284605B0F0BD90F85100BA
:10393400704700BF38B505460C46574B984204D033
:10394400564840F21C4100F027FA2368012B04D9A1
:10395400524840F21D4100F01FFA6368032B04D95A
:103964004E4840F21E4100F017FAA36843B1042BFD
:1039740006D0082B04D0494840F21F4100F00CFA4D
:10398400E36843B1102B06D0202B04D043484FF4F6
:10399400846100F001FA236933B1402B04D03F481D
:1039A40040F2214100F0F8F96369802B0AD0B3F5A5
:1039B400807F07D0B3F5C07F04D0384840F222415D
:1039C40000F0EAF9A3693BB1B3F5007F04D03348B2
:1039D40040F2234100F0E0F9E36953B1B3F5006F1D
:1039E40007D0B3F5406F04D02C4840F2244100F0D6
:1039F400D3F9236A3BB1B3F5805F04D0274840F282
:103A0400254100F0C9F9636A53B1B3F5005F07D0EB
:103A1400B3F5804F04D0214840F2264100F0BCF9B0
:103A24002368012B18D02B6823F4FF4323F07F0372
:103A34006168A2681143E268114322691143626913
:103A44001143A2691143E2691143226A1143626A74
:103A54000A4313432B601DE02B6823F4FF4323F038
:103A64007F03E169226A1143626A0A431A436B685D
:103A740023F4FF4323F07F036068A1680843E168EF
:103A840008432169084361690843A16901430B4361
:103A94002A606B60002038BD400100A094610008DA
:103AA400F8B506460C4615464A4B984204D04A4897
:103AB40040F26F4100F070F92368013B0F2B04D9E9
:103AC40045484FF48E6100F067F96368013B0F2BA2
:103AD40004D9414840F2714100F05EF9A368013B0A
:103AE4000F2B04D93C4840F2724100F055F9E368C9
:103AF400013B0F2B04D9384840F2734100F04CF9D4
:103B04002369013B0F2B04D9334840F2744100F080
:103B140043F96369013B0F2B04D92F4840F27541E7
:103B240000F03AF9A369013B0F2B04D92A4840F26B
:103B3400764100F031F9012D04D9274840F277414C
:103B440000F02AF9012D20D0B36803F0704E2368E9
:103B5400013B6568013D43EA0517A068013847EA5F
:103B64000025E168013945EA01302269013A40EA59
:103B740002416369013B41EA0352A369013B42EA02
:103B8400036343EA0E03B36022E0F36803F0704575
:103B94002368013B6168013943EA0110A268013AD4
:103BA40040EA02212369013B41EA0342A369013B44
:103BB40042EA03632B43B26802F07040E268013AC0
:103BC40061690139090541EA02320243F360B260D6
:103BD4000020F8BD400100A09461000870B582B0D7
:103BE40005460C461646002301932B4B984204D0FD
:103BF4002A4840F2035100F0CFF82368062B04D979
:103C0400264840F2045100F0C7F86368102B08D02E
:103C1400082B06D0182B04D0204840F2055100F0A0
:103C2400BBF8A368013B0F2B04D91C4840F2065192
:103C340000F0B2F8E368B3F5005F04D3174840F22C
:103C4400075100F0A9F8226863681343A268013A97
:103C540043EA4213E26843EA42230193019B2B6146
:103C6400FCF71EFC0446AB6913F0200F0AD0B6F132
:103C7400FF3F09D056B1FCF713FC001BB04207D834
:103C8400012006E0002004E0012002E0032000E01F
:103C9400032002B070BD00BF400100A09461000881
:103CA40038B504460D460B4B984204D00A484FF4ED
:103CB400A66100F071F8B5F5005F04D3064840F240
:103CC400315100F069F8616941EA45016161002000
:103CD40038BD00BF400100A094610008FEE700BFAA
:103CE40008B5034800F07EF80120FFF7F7FF00BF96
:103CF400C461000808B50D4B1B6813B90C4A0B4B83
:103D04001A600A4B1A68C31C23F0030313440949BD
:103D14008B4206D901F02AF90C2303604FF0FF30DF
:103D240008BD02490B60104608BD00BFC400002056
:103D3400A803002000FC022001230360014B0B6058
:103D4400704700BF0400002008B501F00FF95823A4
:103D540003604FF0FF3008BD08B501F007F95823A0
:103D640003604FF0FF3008BD08B501F0FFF8582399
:103D74000360002008BD00BF08B501F0F7F8582320
:103D840003604FF0FF3008BD08B501F0EFF8582389
:103D940003604FF0FF3008BD08B503460A460348E8
:103DA400194600F005F8FFF79BFF00BF18620008F2
:103DB4000FB400B583B004AB53F8042B0193084847
:103DC400802101F0E5F9011E03DD054800F052F8F9
:103DD4000146084603B05DF804EB04B0704700BF29
:103DE400CC00002010B5044601F0A0F9014620469D
:103DF40000F040F80248012100F03CF810BD00BF7B
:103E04000C630008F0B585B006460C46174B1B68DA
:103E140083B9174B0193042302930323039301AF44
:103E2400012528463946ABBE0546B5F1FF3F13D000
:103E34000E4B1D600D4B1B6801930296039401AE5B
:103E4400052528463146ABBE0546B5F1FF3F06D0F1
:103E5400A54207D0601B07E04FF0FF3004E04FF0AD
:103E6400FF3001E04FF0FF3005B0F0BD4C01002001
:103E74007062000808B5FFF7C5FF08BD08B500F07B
:103E8400B5F808BDF8B504460D4617461E46264843
:103E9400FFF78EFF25482168FFF78AFF24486168F1
:103EA400FFF786FF2348A168FFF782FF2248E168F5
:103EB400FFF77EFF21482169FFF77AFF20486169F7
:103EC400FFF776FF1F48A169FFF772FF1E48E169FB
:103ED400FFF76EFF1D48FFF76BFF1D482946FFF7EC
:103EE40067FF1C4CE16A1C48FFF762FF216B1B480B
:103EF400FFF75EFFE16B1A48FFF75AFF15F0800FDA
:103F040003D018483946FFF753FF15F4004F03D088
:103F140015483146FFF74CFF1448FFF749FF144892
:103F24000699FFF745FFF8BD746200088462000833
:103F340094620008A4620008B4620008C462000825
:103F4400D4620008E4620008F46200080463000814
:103F54001063000800ED00E02063000830630008EF
:103F64004063000850630008606300087063000841
:103F74007863000870B585692B888B422FD104467D
:103F840003684668013B042B2BD8DFE803F0032ABF
:103F940024241B003068144901F0BEF870B973681A
:103FA40013B90123236016E0042B02D102232360FA
:103FB40011E0082B02D1032323600CE04FF0FF3300
:103FC400236008E03368023B012B02D8002303601E
:103FD40001E0B3680360AB1CA361012070BD002045
:103FE40070BD002070BD00BF706200080C4B1A68E1
:103FF40042F001021A60002199601A6822F084726A
:1040040022F480321A60074A5A601A6822F4802225
:104014001A60D9604FF00062034B9A60704700BF8A
:10402400003802401030002400ED00E00A4B1B6809
:104034000A4AA2FB03239B09013BB3F1807F09D207
:10404400074A5360F021074B83F823100023936041
:1040540007231360704700BF0C000020D34D62108B
:1040640010E000E000ED00E0034B1B681BB1024AC6
:104074001368013B136070479C03002008B5FFF7E9
:10408400F3FFFCF705FA08BD10B592B0174A136C9C
:1040940043F080531364A2F5E432136843F44043BD
:1040A4001360012301930293022407944FF48003C5
:1040B4000893082309934FF4A8730A930B940723D6
:1040C4000C9301A8FEF7ECF80F230D930E94002334
:1040D4000F934FF4A05310934FF4805311930DA8F2
:1040E4000521FEF737FB12B010BD00BF00380240B7
:1040F40008B5FFF77BFFFCF7B1F9FCF7E5F9FFF72B
:10410400C3FF08BD08B50138012804D80846114684
:10411400FFF7B0FE08BD00F029FF582303604FF0FD
:10412400FF3008BD10B592B0174A136C43F08053AA
:104134001364A2F5E432136843F44043136001238B
:1041440001930293022407944FF4800308930823F5
:1041540009934FF4A8730A930B9407230C9301A8B3
:10416400FEF79EF80F230D930E9400230F934FF444
:10417400A05310934FF4805311930DA80521FEF71B
:10418400E9FA12B010BD00BF0038024010B524484F
:10419400FFF728FE234800F0B7FF234B1B68234892
:1041A40001211822DB6800F041FFFCF757F9FFF703
:1041B400B9FF1F481F4B1968FFF7FAFDFFF736FFD9
:1041C40000F026FC1C48FFF70DFE00204FF0504184
:1041D40000F08CFB0020012100F0D2FB002000F055
:1041E400C9FB164C204600F06DFC1548FFF7FAFD9C
:1041F40000F086FC204600F0EFFB4FF0FF3000F0AB
:10420400DFFB02200F4900F087FD03200E4900F078
:1042140083FD002401340D482146FFF7C9FDF9E769
:10422400BC630008D0630008B4000020EC630008FD
:10423400086400080C0000201C6400080000FFFF54
:10424400306400083C6400084864000858640008AE
:1042540000B587B00C4B5A6C42F480125A641A6B46
:1042640042F020021A634FF4607301930223029315
:1042740003930123049305230593044801A9FDF73F
:10428400E7FB07B05DF804FB00380240001402406D
:1042940010B51048FFF74AFBD0B90E4C0E4B236003
:1042A4001823E3610023A36063612361A3620722EF
:1042B400E262E36023624FF40072A26163624FF42E
:1042C400827363602046FFF7C3FF2046FEF7C0FEFB
:1042D40010BD00BF500100200050014008B5034844
:1042E400FEF76CFFFFF7D4FF08BD00BF50010020AC
:1042F40000B583B002A921F8020D06480122064B3D
:104304001B68FEF76FFF08B1FFF7E8FF03B05DF825
:1043140004FB00BF500100201000002000B583B052
:104324000246064801A9064B1B68FFF7F1F908B1DC
:10433400FFF7D4FF019803B05DF804FB500100209F
:1043440010000020244B1B78002B44D12DE9F041B0
:1043540086B00125204B1D70204C236B43F00803CD
:1043640023634FF40053019302950026039602271A
:104374000497DFF87080404601A9FDF769FB236BC1
:1043840043F0080323634FF480530193029503968B
:104394000497404601A9FDF75BFB236B43F004033C
:1043A4002363042401940295039604970C4F384622
:1043B4000DEB0401FDF74CFB384621463246FDF770
:1043C400F1FC384621462A46FDF7ECFCFFF760FF76
:1043D40006B0BDE8F0817047A80100200038024013
:1043E40000080240000C024038B505460A484FF464
:1043F40000510122FDF7D6FC084C2046042100227E
:10440400FDF7D0FC2846FFF773FF20460421012264
:10441400FDF7C8FC38BD00BF000C02400008024094
:1044240038B505460A484FF400510022FDF7BAFC9E
:10443400084C204604210022FDF7B4FC2846FFF76F
:1044440057FF204604210122FDF7ACFC38BD00BF14
:10445400000C024000080240F8B507460E46104C16
:10446400204604210022FDF79DFC0E4D28464FF402
:1044740000510022FDF796FC3846FFF739FF30461D
:10448400FFF74CFF064628464FF400510122FDF782
:1044940089FC204604210122FDF784FC3046F8BD46
:1044A40000080240000C024008B5FBF7FFFF08BDFE
:1044B400F02070474FF4A070704700BF30B587B04C
:1044C400314B5A6C42F080625A641A6B42F4000217
:1044D4001A631A6B42F001021A631A6B42F0020269
:1044E4001A631A6B42F004021A631A6B42F0080250
:1044F4001A631A6B42F020021A631A6B42F04002EC
:104504001A6341F658030193022302930022039293
:1045140004930E2305931D4801A9FDF799FA4FF45E
:10452400706301931A4D284601A9FDF791FA4FF4DF
:1045340098630193174801A9FDF78AFA4823019368
:10454400154801A9FDF784FA4FF4806301931348D9
:1045540001A9FDF77DFA4FF40C630193104C20463A
:1045640001A9FDF775FA032301930923059328464E
:1045740001A9FDF76DFA4FF4A0530193204601A958
:10458400FDF766FA07B030BD003802400000024073
:104594000004024000080240000C024000140240E3
:1045A40000180240F0B583B004460E4615461F4677
:1045B4000F484FF44033436000238360089BC3607B
:1045C4000C4B0360FDF784F880B909482146FDF7D8
:1045D40083F958B900970648099932462B46FDF7E6
:1045E400CFF818B902480A21FDF706F903B0F0BD67
:1045F400F801002000B0024008B5FFF711FF08BD24
:1046040008B52920FFF7F8FF08BD00BF08B528202A
:10461400FFF7F2FF08BD00BF08B5FFF7E5FE08BDD0
:1046240008B5FFF78FFECA20FFF7E6FFC320FFF7A8
:10463400F3FF0820FFF7F0FF5020FFF7EDFFCF2036
:10464400FFF7DAFF0020FFF7E7FFC120FFF7E4FFE1
:104654003020FFF7E1FFED20FFF7CEFF6420FFF7E6
:10466400DBFF0320FFF7D8FF1220FFF7D5FF8120DF
:10467400FFF7D2FFE820FFF7BFFF8520FFF7CCFF4D
:104684000020FFF7C9FF7820FFF7C6FFCB20FFF714
:10469400B3FF3920FFF7C0FF2C20FFF7BDFF002038
:1046A400FFF7BAFF3420FFF7B7FF0220FFF7B4FF8C
:1046B400F720FFF7A1FF2020FFF7AEFFEA20FFF766
:1046C4009BFF0020FFF7A8FF0020FFF7A5FFB12004
:1046D400FFF792FF0020FFF79FFF1B20FFF79CFFCF
:1046E400B620FFF789FF0A20FFF796FFA220FFF705
:1046F40093FFC020FFF780FF1020FFF78DFFC1203C
:10470400FFF77AFF1020FFF787FFC520FFF774FF3C
:104714004520FFF781FF1520FFF77EFFC720FFF735
:104724006BFF9020FFF778FF3620FFF765FFC82066
:10473400FFF772FFF220FFF75FFF0020FFF76CFF27
:10474400B020FFF759FFC220FFF766FFB620FFF73E
:1047540053FF0A20FFF760FFA720FFF75DFF272024
:10476400FFF75AFF0420FFF757FF2A20FFF744FF03
:104774000020FFF751FF0020FFF74EFF0020FFF756
:104784004BFFEF20FFF748FF2B20FFF735FF0020FA
:10479400FFF742FF0020FFF73FFF0120FFF73CFF38
:1047A4003F20FFF739FFF620FFF726FF0120FFF730
:1047B40033FF0020FFF730FF0620FFF72DFF2C20EA
:1047C400FFF71AFFC820FFF76FFE2620FFF714FF3C
:1047D4000120FFF721FFE020FFF70EFF0F20FFF776
:1047E4001BFF2920FFF718FF2420FFF715FF0C20DB
:1047F400FFF712FF0E20FFF70FFF0920FFF70CFF52
:104804004E20FFF709FF7820FFF706FF3C20FFF753
:1048140003FF0920FFF700FF1320FFF7FDFE05202B
:10482400FFF7FAFE1720FFF7F7FE1120FFF7F4FE5B
:104834000020FFF7F1FEE120FFF7DEFE0020FFF786
:10484400EBFE1620FFF7E8FE1B20FFF7E5FE042031
:10485400FFF7E2FE1120FFF7DFFE0720FFF7DCFE83
:104864003120FFF7D9FE3320FFF7D6FE4220FFF7B1
:10487400D3FE0520FFF7D0FE0C20FFF7CDFE0A2063
:10488400FFF7CAFE2820FFF7C7FE2F20FFF7C4FE5C
:104894000F20FFF7C1FE1120FFF7AEFEC820FFF77F
:1048A40003FE2920FFF7A8FE2C20FFF7A5FE08BD74
:1048B40008B5FFF7D1FD08BD08B5FFF743FDD320C8
:1048C4000321FFF7F5FF80B208BD00BF08B5024B16
:1048D4001B689B6A984708BDA003002008B5024BDB
:1048E4001B68DB6A984708BDA003002070B58EB032
:1048F40004460E4600250195FFF7E8FF0290039554
:10490400FFF7ECFF049005950A96FF23069307959D
:104914008DF834508DF835508DF836504FF4C0630F
:10492400089307230993FFF7D1FF0B90FFF7D6FFF6
:104934000C900D4D284601A92246FDF703FC0B4AB5
:1049440061000B199B0013444FF0FF305860084876
:1049540098600C44A4004FF07F4313512846FDF7A0
:1049640085FC0EB070BD00BF38020020E0010020BD
:1049740014000020014B1860704700BFAC010020F8
:1049840001290AD10D4B1B6803EBC010D0F8843009
:1049940043F00103C0F8843009E0084B1B6803EBC3
:1049A400C010D0F8843023F00103C0F88430034BE6
:1049B4001A68536A43F001035362704738020020B7
:1049C400034B1B6803EB43039B00024AD050704720
:1049D400AC010020E0010020044B1B6803EB4303FF
:1049E4009B00034A13445860704700BFAC01002089
:1049F400E0010020044B1B6803EB43039B00034AC4
:104A040013449860704700BFAC010020E00100200F
:104A140038B51F4C1F4B2360092363610123A36135
:104A24001D23E3610323236240F20D13636240F20A
:104A34004313A36240F21713E36240F24713236364
:104A4400002584F8365084F8345084F835501248E0
:104A540008230360C0230361042383614FF40033FC
:104A64004362FEF775F86560A560E5602561FFF7B0
:104A740025FD2046FDF778FA084B094A13601B68A8
:104A8400984700F03FFA0748FFF7B4FF284638BDBF
:104A94003802002000680140B00100201C00002002
:104AA400A003002014000020044B1B6803EB430305
:104AB4009B00034A13449868704700BFAC01002070
:104AC400E0010020F0B583B007460B4B1C6834238B
:104AD4000A4A03FB0423DE6DFFF7F8FE0546FFF7E1
:104AE400FDFE0346002200920197204631462A46E5
:104AF400FFF758FD03B0F0BDAC01002038020020E0
:104B040008B5034B1B689B6803B1984708BD00BFF9
:104B1400A0030020F8B507460C461646064B1A6853
:104B24003421064B01FB0233DD6DFFF7CFFE00FBA2
:104B3400047045F82060F8BDAC0100203802002064
:104B44002DE9F04F83B081460E460092324B1B682C
:104B540003EB43039B00314A13449B68DA880192B8
:104B64009D8805F1070B4FEAEB0BC5EBCB085FFA09
:104B740088F84FF0000A48E00AFB0BF3009A1A4445
:104B8400BBF1010F03D0BBF1020F03D008E0009A80
:104B9400D75C0DE00099CF5C537843EA072707E020
:104BA4000099CF5C53781B0243EA074397781F436D
:104BB400002424E02B1B4344013B012202FA03F3AB
:104BC4003B420DD009EB0400134B1B6803EB43037A
:104BD4009B0080B23146114AD258FFF79BFF0DE08B
:104BE40009EB04000C4B1B6803EB43039B000B4ACB
:104BF400134480B231465A68FFF78CFF0134A54252
:104C0400D8D80136B6B20AF1010A019B5345B3D88C
:104C140003B0BDE8F08F00BFAC010020E00100202C
:104C240038B50A4B1B6803EB43039B00084C234431
:104C34009C682568203AE38803FB02F2A3880733C3
:104C4400DB1003FB0252FFF77BFF38BDAC010020F1
:104C5400E00100202DE9F04106460F46154698462E
:104C64001346002401E0013413465A1C1B78002B20
:104C7400F9D1FFF72BFE264B1B6803EB43039B0084
:104C8400244A13449B689B88B0FBF3F0B8F1010FEE
:104C940003D0B8F1020F07D00AE0001B00FB03F0B9
:104CA40006EB5006B6B203E0041B13FB0466B6B26F
:104CB400002412E03046394615F8012BFFF7B0FF07
:104CC400134B1B6803EB43039B00124A13449B687A
:104CD4009B881E44B6B20134A4B295F80080FFF755
:104CE400F5FD0B4B1B6803EB43039B00094A13447C
:104CF4009B689A8802FB140080B218F1000318BF65
:104D04000123904238BF0023002BD3D1BDE8F081AA
:104D1400AC010020E001002038B504460D46FFF741
:104D2400C3FEC18811FB04F1002089B22A46032383
:104D3400FFF790FF38BD00BF30B587B03F4B9A6B8B
:104D440042F001029A631A6B42F480021A631A6BEE
:104D540042F002021A631A6B42F004021A631A6BDD
:104D640042F008021A631A6B42F010021A631A6BBB
:104D740042F020021A631A6B42F040021A630223C3
:104D840002930493002503950C23059306AC60233A
:104D940044F8143D2A482146FCF75AFE01230193A6
:104DA40028482146FCF754FE4CF20373019326482D
:104DB4002146FCF74DFE4FF68373019323482146A9
:104DC400FCF746FE4FF63F03019321482146FCF7CA
:104DD4003FFE48F2331301931E482146FCF738FE88
:104DE4001D4C65608023A3604FF40073E3604FF4AF
:104DF400806323614FF4805363614FF48043A36164
:104E0400E5614FF40033236265620323A362E56224
:104E14002563124B2360124B1C63A3632046FBF7EC
:104E2400F1FC2046FBF7E2FB382029462A46FBF733
:104E340071FB3820FBF7B0FB07B030BD00380240EF
:104E44000004024000080240000C0240001002402E
:104E54000014024000180240F002002010640240D6
:104E64005C0300202DE9F04782B082464FF0000831
:104E7400CDF80480214C0126266008276760A660CF
:104E8400C4F80C801E4D284621464FF6FF72FEF7EB
:104E940039F83046FBF70AFB022323606760A660FB
:104EA400C4F80C80284621464FF6FF72FEF72AF814
:104EB4000323236067604FF00409C4F80890C4F822
:104EC4000C80284621464FF6FF72FEF71BF84FF47C
:104ED4000C730193C4F800906760A660019BE360C3
:104EE400284621464FF6FF72FEF70CF82846514635
:104EF400FEF726F802B0BDE8F08700BFE00200200C
:104F04005C03002038B5164C164B2360164D022363
:104F14002B60072169600422AA60E9602B616B6140
:104F2400AB61012363600023A360E260102222616D
:104F3400402262614FF4C072A261E3614FF40062E7
:104F4400226263624FF40053A362FFF7F5FE20462A
:104F54002946FDF7B7FF40F26A50FFF783FF38BDDB
:104F64005C030020400100A040030020014B1868AE
:104F7400704700BFB40000202DE9F843089C0D469B
:104F8400904602FB03F9064618B183690BB900F099
:104F9400BDFA234B9C4201D1746808E0214B9C422A
:104FA40001D1B46803E0204B9C4208BFF468A38994
:104FB4001A0703D523690BB1002720E030462146A8
:104FC40000F04AF90028F7D0002725E0A368013B48
:104FD400002BA36019DAA269934213DB23682A78B1
:104FE4001A70236819780A2913D13046224600F032
:104FF400DFF8431C5842584170B9013701354F4519
:10500400E4D109E030462978F0E723682A781A7059
:10501400236801332360F0E7B7FBF8F0BDE8F883B9
:10502400247F0008447F0008647F000873B5009360
:10503400054B06460D461446186831462A46234653
:10504400FFF79AFF02B070BDB400002070B50E46A1
:10505400054618B183690BB900F058FAAC68A38906
:10506400190701D5236983B92846214600F0F4F8CD
:1050740058B14FF0FF3070BD002B0EDB236816F8DB
:10508400012C1A70236801332360A36816F8012BDE
:10509400013BA360002AEFD116E0A269934209DB29
:1050A400236816F8012C1A70236819780A29EAD1A2
:1050B400284602E016F8011C2846224600F078F83B
:1050C400421C50425041D3E7002B15DAA2699342A7
:1050D40008DB23680A221A702368197891420FD1D9
:1050E400284601E028460A21224600F061F8431CC4
:1050F4005842584130B1BCE723680A221A70236829
:10510400013323600A2070BD024B01461868FFF783
:105114009DBF00BFB400002010F8012B11F8013B23
:10512400012A28BF9A42F7D0D01A7047034613F8D1
:10513400012B002AFBD1181A0138704730B5141E10
:105144009BB0054604DA8B2303604FF0FF301CE06C
:105154004FF40272ADF80C2014BF04F1FF32224662
:10516400029205924FF6FF7200910491ADF80E2061
:1051740069461A461E9B00F09BFB431CBCBF8B2355
:105184002B6014B1009B00221A701BB030BD0000CC
:1051940073B50093054B06460D4614461868314610
:1051A4002A462346FFF7CAFF02B070BDB4000020B0
:1051B40070B50D461446064618B183690BB900F064
:1051C400A5F9224B9C4201D1746808E0204B9C4213
:1051D40001D1B46803E01F4B9C4208BFF468A36983
:1051E400A360A3891A0709D523693BB12368206901
:1051F400181A63699842EDB20FDB08E03046214685
:1052040000F02AF80028F1D04FF0FF3070BD30468E
:10521400214600F011F90028F6D1A368013BA360F0
:1052240023685A1C22601D7063690130984204D0BF
:10523400A389DB0707D50A2D05D13046214600F0A6
:10524400FBF80028E0D1284670BD00BF247F000889
:10525400447F0008647F0008314B70B51D68064622
:105264000C4625B1AB6913B9284600F04FF92D4B14
:105274009C4201D16C6808E02B4B9C4201D1AC6884
:1052840003E02A4B9C4208BFEC68A3899AB2110739
:105294001DD4D50602D40922326038E0500712D555
:1052A400616B41B104F14403994202D0304600F0ED
:1052B4000BFA00236363A38923F02403A38100234F
:1052C400636023692360A38943F00803A3812369EE
:1052D4004BB9A38903F42073B3F5007F03D03046A0
:1052E400214600F09BF9A38913F0010205D00022A6
:1052F400A26062695242A26103E0990758BF6269E1
:10530400A26022694AB903F0800080B230B143F050
:105314004003A3814FF0FF3070BD002070BD00BF7B
:10532400B4000020247F0008447F0008647F000844
:105334008A892DE9F041054610070C4657D44B687D
:10534400002B02DC0B6C002B18DDE66AB6B102F40C
:105354008052002392B22F682B600AB1626D10E074
:10536400216A28460123B047411C024609D12B6813
:105374003BB11D2B01D0162B47D12F600020BDE877
:10538400F081A3895B0705D56368D21A636B0BB1FF
:10539400236CD21AE66A216A00232846B047461CC9
:1053A400A38905D12A681AB11D2A01D0162A19D158
:1053B40000226260D9042269226004D5421C01D112
:1053C4002B6803B96065616B2F600029D6D004F1A6
:1053D4004403994202D0284600F076F90020606325
:1053E400BDE8F08143F04003A381BDE8F0810F697B
:1053F400002FC3D093070E6808BF4B690F6018BF16
:105404000023C7EB06088B6012E0A38943F0400336
:10541400A3814FF0FF30BDE8F0812846216AA66AD7
:105424003A464346B0470028EFDD0744C0EB08087E
:10543400B8F1000FF1DCA1E738B50B6905460C465D
:10544400DBB118B183690BB900F060F80C4B9C42D6
:1054540001D16C6808E00B4B9C4201D1AC6803E0BD
:10546400094B9C4208BFEC68B4F90C302BB12846B8
:105474002146BDE83840FFF75BBF002038BD00BFC0
:10548400247F0008447F0008647F0008014900F07D
:10549400A7B800BF3D540008002310B504460360BC
:1054A4004360836081814366C28103614361836198
:1054B40019465C30082200F0FFF8054B6362054B87
:1054C400A362054BE362054B2462236310BD00BF56
:1054D400D95D0008FB5D0008335E0008575E0008D4
:1054E40070B568234D1E5D430E4605F1740100F04E
:1054F4002FF9044640B1002180E842000C30A0603E
:1055040005F1680200F0D8F8204670BD836910B533
:10551400044633BB8364C3640365124B124A1B689D
:105524008262984204BF0123836100F01FF8606027
:10553400204600F01BF8A060204600F017F8042174
:10554400E06000226068FFF7A7FFA068092101223C
:10555400FFF7A2FFE06812210222FFF79DFF01235B
:10556400A36110BD207F000891540008F8B51B4BBF
:105574001E68B369074613B93046FFF7C7FF4836BC
:10558400B4687368013B04D4B4F90C5075B1683441
:10559400F8E733682BB938460421FFF7A1FF3060E0
:1055A40008B13668ECE70C233B60F8BD4FF6FF7397
:1055B400E3810123A38165662560A560656025619B
:1055C4006561A56104F15C002946082200F074F8C5
:1055D4006563A563A564E5642046F8BD207F0008E3
:1055E4002DE9F8438046894600F14804002694B129
:1055F400A5686768013F0CD4AB89012B07D9B5F9BD
:105604000E30013303D040462946C8470643683567
:10561400F0E72468EBE73046BDE8F883F0B58B8902
:105624009D0791B006460C4626D4B1F90E10002908
:1056340009DAA38913F0800F4FF0000514BF402747
:105644004FF480670DE001AA00F02AFC0028F0DB8B
:10565400029D05F47045A5F500514D424D414FF4AE
:1056640080673046394600F073F860B9A3899A051B
:105674001DD443F00203A38104F147032360236193
:105684000123636113E00B4BB362A389206043F0F1
:105694008003A381206167614DB13046B4F90E10D7
:1056A40000F010FC18B1A38943F00103A38111B0E9
:1056B400F0BD00BF9154000802440346934202D057
:1056C40003F8011BFAE7704730B500293DD051F8C3
:1056D400042C0B1F1D49002AB8BF9B180A680C46EE
:1056E40012B95A600B6030BD93420DD21968581834
:1056F400904201BF5A5852181A6042685A60236097
:1057040030BD994203D80A4651680029F9D114687A
:1057140015199D420AD11B682344D018884213608E
:1057240013D10868034413604B680DE002D90C23BD
:10573400036030BD1C681819884204BF08684968B2
:10574400596004BF00191860536030BD94030020F1
:1057540070B5CC1C24F0030408340C2C38BF0C2482
:10576400002C064603DA0C233360002070BD8C4203
:10577400F9D3204A136810461946A1B10A68121BCE
:105784000ED40B2A03D90A608B188C501FE08B426D
:105794000DBF5A684A685A60026018BF0B4616E08B
:1057A4000B464968E9E7144D2B681BB9304600F0F5
:1057B40001FB28603046214600F0FCFA421C0346F7
:1057C400D1D0C51C25F0030585420AD11C6003F124
:1057D4000B001A1D20F00700821A0AD0514299507A
:1057E40070BD3046E91A00F0E5FA0130BBD02B4613
:1057F400ECE770BD94030020900300202DE9F047EE
:105804008E68B34282460C469046994640D38A89B4
:1058140012F4906F3AD0256809696F1A65690223FA
:1058240005EB450595FBF3F57B1C4B449D4238BFC6
:105834001D4653050FD52946FFF78AFF064698B142
:1058440021693A4600F06FFBA38923F4906343F087
:105854008003A38113E02A4600F08BFB064670B94F
:1058640050462169FFF730FF0C23CAF80030A389A2
:1058740043F04003A3814FF0FF30BDE8F087266179
:1058840065613E44ED1B2660A5604E46B14500D2DD
:105894004E4632462068414600F050FBA3689B1BED
:1058A400A36023681E4426600020BDE8F087000042
:1058B4002DE9F0439DB0064603938B891C060D46E3
:1058C40090460CD50B6953B94021FFF741FF28607E
:1058D400286110B90C233360CCE040236B610023B2
:1058E400099320238DF8293030238DF82A3043463C
:1058F4001C4613F8012B1AB9B4EB08090FD002E0C7
:10590400252AF5D1F8E73046294642464B46FFF7AB
:1059140075FF013000F0A980099B4B44099323785B
:10592400002B00F0A28000234FF0FF320493079372
:10593400059206938DF853301A9304F101084446F6
:10594400DFF8489121784846052200F0DDFA08F195
:105954000108049B30B1C9EB0000012282401343CB
:105964000493ECE7D80644BF20228DF8532019078E
:1059740044BF2B228DF8532022782A2A02D007997B
:1059840023460EE0039A111D12680391002ABBBF3F
:10599400524243F0020307920792B8BF04930134C2
:1059A4000AE01C4601332278303A092A03D80A2037
:1059B40000FB0121F5E7079123782E2B1AD1637898
:1059C4002A2B0AD1039B1A1D1B680392002BB8BF14
:1059D4004FF0FF33023405930CE0611C00220C46A7
:1059E40001312378303B092B03D80A2000FB023213
:1059F400F5E70592DFF8988021784046032200F00D
:105A040083FA38B1049AC8EB00004023834013435F
:105A14000493013421781A488DF82810062204F1E1
:105A2400010800F071FA88B1164B33B9039B0733B0
:105A340023F007030833039313E003AB00933046CA
:105A440004A92A46104BAFF3008007E003AB009390
:105A5400304604A92A460C4B00F092F8421C074633
:105A640003D0099B3B44099341E7AB895B0601D40E
:105A7400099801E04FF0FF301DB0BDE8F08300BF8E
:105A84008E7F00080000000001580008847F000891
:105A94008A7F00082DE9F84391461F468A680B69FE
:105AA400DDF820809342B8BF1346C9F8003091F85E
:105AB400432006460C4612B10133C9F8003023686E
:105AC400990642BFD9F800300233C9F8003025687E
